{
  "_format": "hh-sol-artifact-1",
  "contractName": "AttributeToken",
  "sourceName": "contracts/AttributeToken.sol",
  "abi": [
    {
      "inputs": [],
      "stateMutability": "nonpayable",
      "type": "constructor"
    },
    {
      "inputs": [
        {
          "internalType": "address",
          "name": "sender",
          "type": "address"
        },
        {
          "internalType": "uint256",
          "name": "balance",
          "type": "uint256"
        },
        {
          "internalType": "uint256",
          "name": "needed",
          "type": "uint256"
        },
        {
          "internalType": "uint256",
          "name": "tokenId",
          "type": "uint256"
        }
      ],
      "name": "ERC1155InsufficientBalance",
      "type": "error"
    },
    {
      "inputs": [
        {
          "internalType": "address",
          "name": "approver",
          "type": "address"
        }
      ],
      "name": "ERC1155InvalidApprover",
      "type": "error"
    },
    {
      "inputs": [
        {
          "internalType": "uint256",
          "name": "idsLength",
          "type": "uint256"
        },
        {
          "internalType": "uint256",
          "name": "valuesLength",
          "type": "uint256"
        }
      ],
      "name": "ERC1155InvalidArrayLength",
      "type": "error"
    },
    {
      "inputs": [
        {
          "internalType": "address",
          "name": "operator",
          "type": "address"
        }
      ],
      "name": "ERC1155InvalidOperator",
      "type": "error"
    },
    {
      "inputs": [
        {
          "internalType": "address",
          "name": "receiver",
          "type": "address"
        }
      ],
      "name": "ERC1155InvalidReceiver",
      "type": "error"
    },
    {
      "inputs": [
        {
          "internalType": "address",
          "name": "sender",
          "type": "address"
        }
      ],
      "name": "ERC1155InvalidSender",
      "type": "error"
    },
    {
      "inputs": [
        {
          "internalType": "address",
          "name": "operator",
          "type": "address"
        },
        {
          "internalType": "address",
          "name": "owner",
          "type": "address"
        }
      ],
      "name": "ERC1155MissingApprovalForAll",
      "type": "error"
    },
    {
      "anonymous": false,
      "inputs": [
        {
          "indexed": true,
          "internalType": "address",
          "name": "account",
          "type": "address"
        },
        {
          "indexed": true,
          "internalType": "address",
          "name": "operator",
          "type": "address"
        },
        {
          "indexed": false,
          "internalType": "bool",
          "name": "approved",
          "type": "bool"
        }
      ],
      "name": "ApprovalForAll",
      "type": "event"
    },
    {
      "anonymous": false,
      "inputs": [
        {
          "indexed": true,
          "internalType": "address",
          "name": "operator",
          "type": "address"
        },
        {
          "indexed": true,
          "internalType": "address",
          "name": "from",
          "type": "address"
        },
        {
          "indexed": true,
          "internalType": "address",
          "name": "to",
          "type": "address"
        },
        {
          "indexed": false,
          "internalType": "uint256[]",
          "name": "ids",
          "type": "uint256[]"
        },
        {
          "indexed": false,
          "internalType": "uint256[]",
          "name": "values",
          "type": "uint256[]"
        }
      ],
      "name": "TransferBatch",
      "type": "event"
    },
    {
      "anonymous": false,
      "inputs": [
        {
          "indexed": true,
          "internalType": "address",
          "name": "operator",
          "type": "address"
        },
        {
          "indexed": true,
          "internalType": "address",
          "name": "from",
          "type": "address"
        },
        {
          "indexed": true,
          "internalType": "address",
          "name": "to",
          "type": "address"
        },
        {
          "indexed": false,
          "internalType": "uint256",
          "name": "id",
          "type": "uint256"
        },
        {
          "indexed": false,
          "internalType": "uint256",
          "name": "value",
          "type": "uint256"
        }
      ],
      "name": "TransferSingle",
      "type": "event"
    },
    {
      "anonymous": false,
      "inputs": [
        {
          "indexed": false,
          "internalType": "string",
          "name": "value",
          "type": "string"
        },
        {
          "indexed": true,
          "internalType": "uint256",
          "name": "id",
          "type": "uint256"
        }
      ],
      "name": "URI",
      "type": "event"
    },
    {
      "inputs": [
        {
          "internalType": "address",
          "name": "account",
          "type": "address"
        },
        {
          "internalType": "uint256",
          "name": "id",
          "type": "uint256"
        }
      ],
      "name": "balanceOf",
      "outputs": [
        {
          "internalType": "uint256",
          "name": "",
          "type": "uint256"
        }
      ],
      "stateMutability": "view",
      "type": "function"
    },
    {
      "inputs": [
        {
          "internalType": "address[]",
          "name": "accounts",
          "type": "address[]"
        },
        {
          "internalType": "uint256[]",
          "name": "ids",
          "type": "uint256[]"
        }
      ],
      "name": "balanceOfBatch",
      "outputs": [
        {
          "internalType": "uint256[]",
          "name": "",
          "type": "uint256[]"
        }
      ],
      "stateMutability": "view",
      "type": "function"
    },
    {
      "inputs": [
        {
          "internalType": "address",
          "name": "account",
          "type": "address"
        },
        {
          "internalType": "uint256",
          "name": "id",
          "type": "uint256"
        },
        {
          "internalType": "uint256",
          "name": "value",
          "type": "uint256"
        }
      ],
      "name": "burn",
      "outputs": [],
      "stateMutability": "nonpayable",
      "type": "function"
    },
    {
      "inputs": [
        {
          "internalType": "address",
          "name": "account",
          "type": "address"
        },
        {
          "internalType": "uint256[]",
          "name": "ids",
          "type": "uint256[]"
        },
        {
          "internalType": "uint256[]",
          "name": "values",
          "type": "uint256[]"
        }
      ],
      "name": "burnBatch",
      "outputs": [],
      "stateMutability": "nonpayable",
      "type": "function"
    },
    {
      "inputs": [
        {
          "internalType": "address",
          "name": "senderToVerify",
          "type": "address"
        },
        {
          "internalType": "uint256",
          "name": "id",
          "type": "uint256"
        }
      ],
      "name": "callerIsTokenHolder",
      "outputs": [
        {
          "internalType": "bool",
          "name": "",
          "type": "bool"
        }
      ],
      "stateMutability": "view",
      "type": "function"
    },
    {
      "inputs": [
        {
          "internalType": "address",
          "name": "account",
          "type": "address"
        },
        {
          "internalType": "address",
          "name": "operator",
          "type": "address"
        }
      ],
      "name": "isApprovedForAll",
      "outputs": [
        {
          "internalType": "bool",
          "name": "",
          "type": "bool"
        }
      ],
      "stateMutability": "view",
      "type": "function"
    },
    {
      "inputs": [
        {
          "internalType": "address",
          "name": "to",
          "type": "address"
        },
        {
          "internalType": "uint256",
          "name": "id",
          "type": "uint256"
        },
        {
          "internalType": "uint256",
          "name": "amount",
          "type": "uint256"
        }
      ],
      "name": "mintExistingToken",
      "outputs": [],
      "stateMutability": "nonpayable",
      "type": "function"
    },
    {
      "inputs": [
        {
          "internalType": "address",
          "name": "to",
          "type": "address"
        },
        {
          "internalType": "uint256",
          "name": "id",
          "type": "uint256"
        },
        {
          "internalType": "uint256",
          "name": "amount",
          "type": "uint256"
        }
      ],
      "name": "mintNewToken",
      "outputs": [],
      "stateMutability": "nonpayable",
      "type": "function"
    },
    {
      "inputs": [
        {
          "internalType": "address",
          "name": "from",
          "type": "address"
        },
        {
          "internalType": "address",
          "name": "to",
          "type": "address"
        },
        {
          "internalType": "uint256[]",
          "name": "ids",
          "type": "uint256[]"
        },
        {
          "internalType": "uint256[]",
          "name": "values",
          "type": "uint256[]"
        },
        {
          "internalType": "bytes",
          "name": "data",
          "type": "bytes"
        }
      ],
      "name": "safeBatchTransferFrom",
      "outputs": [],
      "stateMutability": "nonpayable",
      "type": "function"
    },
    {
      "inputs": [
        {
          "internalType": "address",
          "name": "from",
          "type": "address"
        },
        {
          "internalType": "address",
          "name": "to",
          "type": "address"
        },
        {
          "internalType": "uint256",
          "name": "id",
          "type": "uint256"
        },
        {
          "internalType": "uint256",
          "name": "amount",
          "type": "uint256"
        },
        {
          "internalType": "bytes",
          "name": "data",
          "type": "bytes"
        }
      ],
      "name": "safeTransferFrom",
      "outputs": [],
      "stateMutability": "nonpayable",
      "type": "function"
    },
    {
      "inputs": [
        {
          "internalType": "address",
          "name": "operator",
          "type": "address"
        },
        {
          "internalType": "bool",
          "name": "approved",
          "type": "bool"
        }
      ],
      "name": "setApprovalForAll",
      "outputs": [],
      "stateMutability": "nonpayable",
      "type": "function"
    },
    {
      "inputs": [
        {
          "internalType": "bytes4",
          "name": "interfaceId",
          "type": "bytes4"
        }
      ],
      "name": "supportsInterface",
      "outputs": [
        {
          "internalType": "bool",
          "name": "",
          "type": "bool"
        }
      ],
      "stateMutability": "view",
      "type": "function"
    },
    {
      "inputs": [
        {
          "internalType": "uint256",
          "name": "",
          "type": "uint256"
        }
      ],
      "name": "tokenCreators",
      "outputs": [
        {
          "internalType": "address",
          "name": "",
          "type": "address"
        }
      ],
      "stateMutability": "view",
      "type": "function"
    },
    {
      "inputs": [
        {
          "internalType": "uint256",
          "name": "",
          "type": "uint256"
        }
      ],
      "name": "uri",
      "outputs": [
        {
          "internalType": "string",
          "name": "",
          "type": "string"
        }
      ],
      "stateMutability": "view",
      "type": "function"
    }
  ],
  "bytecode": "0x60806040523480156200001157600080fd5b506040518060200160405280600081525062000033816200003a60201b60201c565b50620003b0565b80600290816200004b9190620002c9565b5050565b600081519050919050565b7f4e487b7100000000000000000000000000000000000000000000000000000000600052604160045260246000fd5b7f4e487b7100000000000000000000000000000000000000000000000000000000600052602260045260246000fd5b60006002820490506001821680620000d157607f821691505b602082108103620000e757620000e662000089565b5b50919050565b60008190508160005260206000209050919050565b60006020601f8301049050919050565b600082821b905092915050565b600060088302620001517fffffffffffffffffffffffffffffffffffffffffffffffffffffffffffffffff8262000112565b6200015d868362000112565b95508019841693508086168417925050509392505050565b6000819050919050565b6000819050919050565b6000620001aa620001a46200019e8462000175565b6200017f565b62000175565b9050919050565b6000819050919050565b620001c68362000189565b620001de620001d582620001b1565b8484546200011f565b825550505050565b600090565b620001f5620001e6565b62000202818484620001bb565b505050565b5b818110156200022a576200021e600082620001eb565b60018101905062000208565b5050565b601f82111562000279576200024381620000ed565b6200024e8462000102565b810160208510156200025e578190505b620002766200026d8562000102565b83018262000207565b50505b505050565b600082821c905092915050565b60006200029e600019846008026200027e565b1980831691505092915050565b6000620002b983836200028b565b9150826002028217905092915050565b620002d4826200004f565b67ffffffffffffffff811115620002f057620002ef6200005a565b5b620002fc8254620000b8565b620003098282856200022e565b600060209050601f8311600181146200034157600084156200032c578287015190505b620003388582620002ab565b865550620003a8565b601f1984166200035186620000ed565b60005b828110156200037b5784890151825560018201915060208501945060208101905062000354565b868310156200039b578489015162000397601f8916826200028b565b8355505b6001600288020188555050505b505050505050565b612c1f80620003c06000396000f3fe608060405234801561001057600080fd5b50600436106100e95760003560e01c8063b9246a5a1161008c578063e0fd045f11610066578063e0fd045f1461026a578063e985e9c51461029a578063f242432a146102ca578063f5298aca146102e6576100e9565b8063b9246a5a14610202578063bb34889e1461021e578063c42bfbb11461024e576100e9565b80632eb2c2d6116100c85780632eb2c2d61461017e5780634e1273f41461019a5780636b20c454146101ca578063a22cb465146101e6576100e9565b8062fdd58e146100ee57806301ffc9a71461011e5780630e89341c1461014e575b600080fd5b61010860048036038101906101039190611c7e565b610302565b6040516101159190611ccd565b60405180910390f35b61013860048036038101906101339190611d40565b61035c565b6040516101459190611d88565b60405180910390f35b61016860048036038101906101639190611da3565b61043e565b6040516101759190611e60565b60405180910390f35b6101986004803603810190610193919061207f565b6104d2565b005b6101b460048036038101906101af9190612211565b61057a565b6040516101c19190612347565b60405180910390f35b6101e460048036038101906101df9190612369565b610689565b005b61020060048036038101906101fb9190612420565b610735565b005b61021c60048036038101906102179190612460565b61074b565b005b61023860048036038101906102339190611c7e565b6108ce565b6040516102459190611d88565b60405180910390f35b61026860048036038101906102639190612460565b6108e4565b005b610284600480360381019061027f9190611da3565b610a73565b60405161029191906124c2565b60405180910390f35b6102b460048036038101906102af91906124dd565b610aa6565b6040516102c19190611d88565b60405180910390f35b6102e460048036038101906102df919061251d565b610b3a565b005b61030060048036038101906102fb9190612460565b610ca9565b005b600080600083815260200190815260200160002060008473ffffffffffffffffffffffffffffffffffffffff1673ffffffffffffffffffffffffffffffffffffffff16815260200190815260200160002054905092915050565b60007fd9b67a26000000000000000000000000000000000000000000000000000000007bffffffffffffffffffffffffffffffffffffffffffffffffffffffff1916827bffffffffffffffffffffffffffffffffffffffffffffffffffffffff1916148061042757507f0e89341c000000000000000000000000000000000000000000000000000000007bffffffffffffffffffffffffffffffffffffffffffffffffffffffff1916827bffffffffffffffffffffffffffffffffffffffffffffffffffffffff1916145b80610437575061043682610d55565b5b9050919050565b60606002805461044d906125e3565b80601f0160208091040260200160405190810160405280929190818152602001828054610479906125e3565b80156104c65780601f1061049b576101008083540402835291602001916104c6565b820191906000526020600020905b8154815290600101906020018083116104a957829003601f168201915b50505050509050919050565b60006104dc610dbf565b90508073ffffffffffffffffffffffffffffffffffffffff168673ffffffffffffffffffffffffffffffffffffffff1614158015610521575061051f8682610aa6565b155b156105655780866040517fe237d92200000000000000000000000000000000000000000000000000000000815260040161055c929190612614565b60405180910390fd5b6105728686868686610dc7565b505050505050565b606081518351146105c657815183516040517f5b0599910000000000000000000000000000000000000000000000000000000081526004016105bd92919061263d565b60405180910390fd5b6000835167ffffffffffffffff8111156105e3576105e2611e87565b5b6040519080825280602002602001820160405280156106115781602001602082028036833780820191505090505b50905060005b845181101561067e5761064e6106368287610ebf90919063ffffffff16565b6106498387610ed390919063ffffffff16565b610302565b82828151811061066157610660612666565b5b60200260200101818152505080610677906126c4565b9050610617565b508091505092915050565b610691610dbf565b73ffffffffffffffffffffffffffffffffffffffff168373ffffffffffffffffffffffffffffffffffffffff16141580156106da57506106d8836106d3610dbf565b610aa6565b155b15610725576106e7610dbf565b836040517fe237d92200000000000000000000000000000000000000000000000000000000815260040161071c929190612614565b60405180910390fd5b610730838383610ee7565b505050565b610747610740610dbf565b8383610f7b565b5050565b6000821161078e576040517f08c379a000000000000000000000000000000000000000000000000000000000815260040161078590612758565b60405180910390fd5b600073ffffffffffffffffffffffffffffffffffffffff166003600084815260200190815260200160002060009054906101000a900473ffffffffffffffffffffffffffffffffffffffff1673ffffffffffffffffffffffffffffffffffffffff1614610830576040517f08c379a0000000000000000000000000000000000000000000000000000000008152600401610827906127c4565b60405180910390fd5b336003600084815260200190815260200160002060006101000a81548173ffffffffffffffffffffffffffffffffffffffff021916908373ffffffffffffffffffffffffffffffffffffffff16021790555060006040518060400160405280600181526020017f120000000000000000000000000000000000000000000000000000000000000081525090506108c8848484846110eb565b50505050565b6000806108db8484610302565b11905092915050565b600073ffffffffffffffffffffffffffffffffffffffff166003600084815260200190815260200160002060009054906101000a900473ffffffffffffffffffffffffffffffffffffffff1673ffffffffffffffffffffffffffffffffffffffff1603610986576040517f08c379a000000000000000000000000000000000000000000000000000000000815260040161097d90612830565b60405180910390fd5b3373ffffffffffffffffffffffffffffffffffffffff166003600084815260200190815260200160002060009054906101000a900473ffffffffffffffffffffffffffffffffffffffff1673ffffffffffffffffffffffffffffffffffffffff1614610a27576040517f08c379a0000000000000000000000000000000000000000000000000000000008152600401610a1e906128c2565b60405180910390fd5b60006040518060400160405280600181526020017f12000000000000000000000000000000000000000000000000000000000000008152509050610a6d848484846110eb565b50505050565b60036020528060005260406000206000915054906101000a900473ffffffffffffffffffffffffffffffffffffffff1681565b6000600160008473ffffffffffffffffffffffffffffffffffffffff1673ffffffffffffffffffffffffffffffffffffffff16815260200190815260200160002060008373ffffffffffffffffffffffffffffffffffffffff1673ffffffffffffffffffffffffffffffffffffffff16815260200190815260200160002060009054906101000a900460ff16905092915050565b3373ffffffffffffffffffffffffffffffffffffffff168573ffffffffffffffffffffffffffffffffffffffff1614610ba8576040517f08c379a0000000000000000000000000000000000000000000000000000000008152600401610b9f9061292e565b60405180910390fd5b3373ffffffffffffffffffffffffffffffffffffffff166003600085815260200190815260200160002060009054906101000a900473ffffffffffffffffffffffffffffffffffffffff1673ffffffffffffffffffffffffffffffffffffffff1614610c49576040517f08c379a0000000000000000000000000000000000000000000000000000000008152600401610c40906128c2565b60405180910390fd5b81610c543385610302565b1015610c95576040517f08c379a0000000000000000000000000000000000000000000000000000000008152600401610c8c906129c0565b60405180910390fd5b610ca28585858585611184565b5050505050565b610cb1610dbf565b73ffffffffffffffffffffffffffffffffffffffff168373ffffffffffffffffffffffffffffffffffffffff1614158015610cfa5750610cf883610cf3610dbf565b610aa6565b155b15610d4557610d07610dbf565b836040517fe237d922000000000000000000000000000000000000000000000000000000008152600401610d3c929190612614565b60405180910390fd5b610d5083838361122c565b505050565b60007f01ffc9a7000000000000000000000000000000000000000000000000000000007bffffffffffffffffffffffffffffffffffffffffffffffffffffffff1916827bffffffffffffffffffffffffffffffffffffffffffffffffffffffff1916149050919050565b600033905090565b600073ffffffffffffffffffffffffffffffffffffffff168473ffffffffffffffffffffffffffffffffffffffff1603610e395760006040517f57f447ce000000000000000000000000000000000000000000000000000000008152600401610e3091906124c2565b60405180910390fd5b600073ffffffffffffffffffffffffffffffffffffffff168573ffffffffffffffffffffffffffffffffffffffff1603610eab5760006040517f01a83514000000000000000000000000000000000000000000000000000000008152600401610ea291906124c2565b60405180910390fd5b610eb885858585856112d3565b5050505050565b600060208202602084010151905092915050565b600060208202602084010151905092915050565b600073ffffffffffffffffffffffffffffffffffffffff168373ffffffffffffffffffffffffffffffffffffffff1603610f595760006040517f01a83514000000000000000000000000000000000000000000000000000000008152600401610f5091906124c2565b60405180910390fd5b610f768360008484604051806020016040528060008152506112d3565b505050565b600073ffffffffffffffffffffffffffffffffffffffff168273ffffffffffffffffffffffffffffffffffffffff1603610fed5760006040517fced3e100000000000000000000000000000000000000000000000000000000008152600401610fe491906124c2565b60405180910390fd5b80600160008573ffffffffffffffffffffffffffffffffffffffff1673ffffffffffffffffffffffffffffffffffffffff16815260200190815260200160002060008473ffffffffffffffffffffffffffffffffffffffff1673ffffffffffffffffffffffffffffffffffffffff16815260200190815260200160002060006101000a81548160ff0219169083151502179055508173ffffffffffffffffffffffffffffffffffffffff168373ffffffffffffffffffffffffffffffffffffffff167f17307eab39ab6107e8899845ad3d59bd9653f200f220920489ca2b5937696c31836040516110de9190611d88565b60405180910390a3505050565b600073ffffffffffffffffffffffffffffffffffffffff168473ffffffffffffffffffffffffffffffffffffffff160361115d5760006040517f57f447ce00000000000000000000000000000000000000000000000000000000815260040161115491906124c2565b60405180910390fd5b60008061116a8585611385565b9150915061117c6000878484876112d3565b505050505050565b600061118e610dbf565b90508073ffffffffffffffffffffffffffffffffffffffff168673ffffffffffffffffffffffffffffffffffffffff16141580156111d357506111d18682610aa6565b155b156112175780866040517fe237d92200000000000000000000000000000000000000000000000000000000815260040161120e929190612614565b60405180910390fd5b61122486868686866113b5565b505050505050565b600073ffffffffffffffffffffffffffffffffffffffff168373ffffffffffffffffffffffffffffffffffffffff160361129e5760006040517f01a8351400000000000000000000000000000000000000000000000000000000815260040161129591906124c2565b60405180910390fd5b6000806112ab8484611385565b915091506112cc8560008484604051806020016040528060008152506112d3565b5050505050565b6112df858585856114c0565b600073ffffffffffffffffffffffffffffffffffffffff168473ffffffffffffffffffffffffffffffffffffffff161461137e57600061131d610dbf565b9050600184510361136d57600061133e600086610ed390919063ffffffff16565b90506000611356600086610ed390919063ffffffff16565b905061136683898985858961186e565b505061137c565b61137b818787878787611a22565b5b505b5050505050565b60608060405191506001825283602083015260408201905060018152826020820152604081016040529250929050565b600073ffffffffffffffffffffffffffffffffffffffff168473ffffffffffffffffffffffffffffffffffffffff16036114275760006040517f57f447ce00000000000000000000000000000000000000000000000000000000815260040161141e91906124c2565b60405180910390fd5b600073ffffffffffffffffffffffffffffffffffffffff168573ffffffffffffffffffffffffffffffffffffffff16036114995760006040517f01a8351400000000000000000000000000000000000000000000000000000000815260040161149091906124c2565b60405180910390fd5b6000806114a68585611385565b915091506114b787878484876112d3565b50505050505050565b805182511461150a57815181516040517f5b05999100000000000000000000000000000000000000000000000000000000815260040161150192919061263d565b60405180910390fd5b6000611514610dbf565b905060005b83518110156117295760006115378286610ed390919063ffffffff16565b9050600061154e8386610ed390919063ffffffff16565b9050600073ffffffffffffffffffffffffffffffffffffffff168873ffffffffffffffffffffffffffffffffffffffff161461167b57600080600084815260200190815260200160002060008a73ffffffffffffffffffffffffffffffffffffffff1673ffffffffffffffffffffffffffffffffffffffff1681526020019081526020016000205490508181101561162357888183856040517f03dee4c500000000000000000000000000000000000000000000000000000000815260040161161a94939291906129e0565b60405180910390fd5b81810360008085815260200190815260200160002060008b73ffffffffffffffffffffffffffffffffffffffff1673ffffffffffffffffffffffffffffffffffffffff16815260200190815260200160002081905550505b600073ffffffffffffffffffffffffffffffffffffffff168773ffffffffffffffffffffffffffffffffffffffff1614611716578060008084815260200190815260200160002060008973ffffffffffffffffffffffffffffffffffffffff1673ffffffffffffffffffffffffffffffffffffffff168152602001908152602001600020600082825461170e9190612a25565b925050819055505b505080611722906126c4565b9050611519565b5060018351036117e8576000611749600085610ed390919063ffffffff16565b90506000611761600085610ed390919063ffffffff16565b90508573ffffffffffffffffffffffffffffffffffffffff168773ffffffffffffffffffffffffffffffffffffffff168473ffffffffffffffffffffffffffffffffffffffff167fc3d58168c5ae7397731d063d5bbf3d657854427343f4c083240f7aacaa2d0f6285856040516117d992919061263d565b60405180910390a45050611867565b8373ffffffffffffffffffffffffffffffffffffffff168573ffffffffffffffffffffffffffffffffffffffff168273ffffffffffffffffffffffffffffffffffffffff167f4a39dc06d4c0dbc64b70af90fd698a233a518aa5d07e595d983b8c0526c8f7fb868660405161185e929190612a59565b60405180910390a45b5050505050565b60008473ffffffffffffffffffffffffffffffffffffffff163b1115611a1a578373ffffffffffffffffffffffffffffffffffffffff1663f23a6e6187878686866040518663ffffffff1660e01b81526004016118cf959493929190612ae5565b6020604051808303816000875af192505050801561190b57506040513d601f19601f820116820180604052508101906119089190612b54565b60015b61198f573d806000811461193b576040519150601f19603f3d011682016040523d82523d6000602084013e611940565b606091505b50600081510361198757846040517f57f447ce00000000000000000000000000000000000000000000000000000000815260040161197e91906124c2565b60405180910390fd5b805181602001fd5b63f23a6e6160e01b7bffffffffffffffffffffffffffffffffffffffffffffffffffffffff1916817bffffffffffffffffffffffffffffffffffffffffffffffffffffffff191614611a1857846040517f57f447ce000000000000000000000000000000000000000000000000000000008152600401611a0f91906124c2565b60405180910390fd5b505b505050505050565b60008473ffffffffffffffffffffffffffffffffffffffff163b1115611bce578373ffffffffffffffffffffffffffffffffffffffff1663bc197c8187878686866040518663ffffffff1660e01b8152600401611a83959493929190612b81565b6020604051808303816000875af1925050508015611abf57506040513d601f19601f82011682018060405250810190611abc9190612b54565b60015b611b43573d8060008114611aef576040519150601f19603f3d011682016040523d82523d6000602084013e611af4565b606091505b506000815103611b3b57846040517f57f447ce000000000000000000000000000000000000000000000000000000008152600401611b3291906124c2565b60405180910390fd5b805181602001fd5b63bc197c8160e01b7bffffffffffffffffffffffffffffffffffffffffffffffffffffffff1916817bffffffffffffffffffffffffffffffffffffffffffffffffffffffff191614611bcc57846040517f57f447ce000000000000000000000000000000000000000000000000000000008152600401611bc391906124c2565b60405180910390fd5b505b505050505050565b6000604051905090565b600080fd5b600080fd5b600073ffffffffffffffffffffffffffffffffffffffff82169050919050565b6000611c1582611bea565b9050919050565b611c2581611c0a565b8114611c3057600080fd5b50565b600081359050611c4281611c1c565b92915050565b6000819050919050565b611c5b81611c48565b8114611c6657600080fd5b50565b600081359050611c7881611c52565b92915050565b60008060408385031215611c9557611c94611be0565b5b6000611ca385828601611c33565b9250506020611cb485828601611c69565b9150509250929050565b611cc781611c48565b82525050565b6000602082019050611ce26000830184611cbe565b92915050565b60007fffffffff0000000000000000000000000000000000000000000000000000000082169050919050565b611d1d81611ce8565b8114611d2857600080fd5b50565b600081359050611d3a81611d14565b92915050565b600060208284031215611d5657611d55611be0565b5b6000611d6484828501611d2b565b91505092915050565b60008115159050919050565b611d8281611d6d565b82525050565b6000602082019050611d9d6000830184611d79565b92915050565b600060208284031215611db957611db8611be0565b5b6000611dc784828501611c69565b91505092915050565b600081519050919050565b600082825260208201905092915050565b60005b83811015611e0a578082015181840152602081019050611def565b60008484015250505050565b6000601f19601f8301169050919050565b6000611e3282611dd0565b611e3c8185611ddb565b9350611e4c818560208601611dec565b611e5581611e16565b840191505092915050565b60006020820190508181036000830152611e7a8184611e27565b905092915050565b600080fd5b7f4e487b7100000000000000000000000000000000000000000000000000000000600052604160045260246000fd5b611ebf82611e16565b810181811067ffffffffffffffff82111715611ede57611edd611e87565b5b80604052505050565b6000611ef1611bd6565b9050611efd8282611eb6565b919050565b600067ffffffffffffffff821115611f1d57611f1c611e87565b5b602082029050602081019050919050565b600080fd5b6000611f46611f4184611f02565b611ee7565b90508083825260208201905060208402830185811115611f6957611f68611f2e565b5b835b81811015611f925780611f7e8882611c69565b845260208401935050602081019050611f6b565b5050509392505050565b600082601f830112611fb157611fb0611e82565b5b8135611fc1848260208601611f33565b91505092915050565b600080fd5b600067ffffffffffffffff821115611fea57611fe9611e87565b5b611ff382611e16565b9050602081019050919050565b82818337600083830152505050565b600061202261201d84611fcf565b611ee7565b90508281526020810184848401111561203e5761203d611fca565b5b612049848285612000565b509392505050565b600082601f83011261206657612065611e82565b5b813561207684826020860161200f565b91505092915050565b600080600080600060a0868803121561209b5761209a611be0565b5b60006120a988828901611c33565b95505060206120ba88828901611c33565b945050604086013567ffffffffffffffff8111156120db576120da611be5565b5b6120e788828901611f9c565b935050606086013567ffffffffffffffff81111561210857612107611be5565b5b61211488828901611f9c565b925050608086013567ffffffffffffffff81111561213557612134611be5565b5b61214188828901612051565b9150509295509295909350565b600067ffffffffffffffff82111561216957612168611e87565b5b602082029050602081019050919050565b600061218d6121888461214e565b611ee7565b905080838252602082019050602084028301858111156121b0576121af611f2e565b5b835b818110156121d957806121c58882611c33565b8452602084019350506020810190506121b2565b5050509392505050565b600082601f8301126121f8576121f7611e82565b5b813561220884826020860161217a565b91505092915050565b6000806040838503121561222857612227611be0565b5b600083013567ffffffffffffffff81111561224657612245611be5565b5b612252858286016121e3565b925050602083013567ffffffffffffffff81111561227357612272611be5565b5b61227f85828601611f9c565b9150509250929050565b600081519050919050565b600082825260208201905092915050565b6000819050602082019050919050565b6122be81611c48565b82525050565b60006122d083836122b5565b60208301905092915050565b6000602082019050919050565b60006122f482612289565b6122fe8185612294565b9350612309836122a5565b8060005b8381101561233a57815161232188826122c4565b975061232c836122dc565b92505060018101905061230d565b5085935050505092915050565b6000602082019050818103600083015261236181846122e9565b905092915050565b60008060006060848603121561238257612381611be0565b5b600061239086828701611c33565b935050602084013567ffffffffffffffff8111156123b1576123b0611be5565b5b6123bd86828701611f9c565b925050604084013567ffffffffffffffff8111156123de576123dd611be5565b5b6123ea86828701611f9c565b9150509250925092565b6123fd81611d6d565b811461240857600080fd5b50565b60008135905061241a816123f4565b92915050565b6000806040838503121561243757612436611be0565b5b600061244585828601611c33565b92505060206124568582860161240b565b9150509250929050565b60008060006060848603121561247957612478611be0565b5b600061248786828701611c33565b935050602061249886828701611c69565b92505060406124a986828701611c69565b9150509250925092565b6124bc81611c0a565b82525050565b60006020820190506124d760008301846124b3565b92915050565b600080604083850312156124f4576124f3611be0565b5b600061250285828601611c33565b925050602061251385828601611c33565b9150509250929050565b600080600080600060a0868803121561253957612538611be0565b5b600061254788828901611c33565b955050602061255888828901611c33565b945050604061256988828901611c69565b935050606061257a88828901611c69565b925050608086013567ffffffffffffffff81111561259b5761259a611be5565b5b6125a788828901612051565b9150509295509295909350565b7f4e487b7100000000000000000000000000000000000000000000000000000000600052602260045260246000fd5b600060028204905060018216806125fb57607f821691505b60208210810361260e5761260d6125b4565b5b50919050565b600060408201905061262960008301856124b3565b61263660208301846124b3565b9392505050565b60006040820190506126526000830185611cbe565b61265f6020830184611cbe565b9392505050565b7f4e487b7100000000000000000000000000000000000000000000000000000000600052603260045260246000fd5b7f4e487b7100000000000000000000000000000000000000000000000000000000600052601160045260246000fd5b60006126cf82611c48565b91507fffffffffffffffffffffffffffffffffffffffffffffffffffffffffffffffff820361270157612700612695565b5b600182019050919050565b7f546f6b656e204944206d7573742062652067726561746572207468616e203000600082015250565b6000612742601f83611ddb565b915061274d8261270c565b602082019050919050565b6000602082019050818103600083015261277181612735565b9050919050565b7f546f6b656e20494420616c726561647920657869737473000000000000000000600082015250565b60006127ae601783611ddb565b91506127b982612778565b602082019050919050565b600060208201905081810360008301526127dd816127a1565b9050919050565b7f546f6b656e20646f6573206e6f74206578697374000000000000000000000000600082015250565b600061281a601483611ddb565b9150612825826127e4565b602082019050919050565b600060208201905081810360008301526128498161280d565b9050919050565b7f43616c6c6572206973206e6f74207468652063726561746f72206f662074686560008201527f20746f6b656e0000000000000000000000000000000000000000000000000000602082015250565b60006128ac602683611ddb565b91506128b782612850565b604082019050919050565b600060208201905081810360008301526128db8161289f565b9050919050565b7f43616c6c6572206d7573742062652074686520746f6b656e206f776e65720000600082015250565b6000612918601e83611ddb565b9150612923826128e2565b602082019050919050565b600060208201905081810360008301526129478161290b565b9050919050565b7f43616c6c657220646f6573206e6f74206861766520656e6f75676820746f6b6560008201527f6e73000000000000000000000000000000000000000000000000000000000000602082015250565b60006129aa602283611ddb565b91506129b58261294e565b604082019050919050565b600060208201905081810360008301526129d98161299d565b9050919050565b60006080820190506129f560008301876124b3565b612a026020830186611cbe565b612a0f6040830185611cbe565b612a1c6060830184611cbe565b95945050505050565b6000612a3082611c48565b9150612a3b83611c48565b9250828201905080821115612a5357612a52612695565b5b92915050565b60006040820190508181036000830152612a7381856122e9565b90508181036020830152612a8781846122e9565b90509392505050565b600081519050919050565b600082825260208201905092915050565b6000612ab782612a90565b612ac18185612a9b565b9350612ad1818560208601611dec565b612ada81611e16565b840191505092915050565b600060a082019050612afa60008301886124b3565b612b0760208301876124b3565b612b146040830186611cbe565b612b216060830185611cbe565b8181036080830152612b338184612aac565b90509695505050505050565b600081519050612b4e81611d14565b92915050565b600060208284031215612b6a57612b69611be0565b5b6000612b7884828501612b3f565b91505092915050565b600060a082019050612b9660008301886124b3565b612ba360208301876124b3565b8181036040830152612bb581866122e9565b90508181036060830152612bc981856122e9565b90508181036080830152612bdd8184612aac565b9050969550505050505056fea2646970667358221220b3b7a5173abdaaabf1afc33269d49c78ac8f2a458ec11062ff28c6d10c25dc6b64736f6c63430008140033",
  "linkReferences": {},
  "deployedLinkReferences": {}
}