{
  "_format": "hh-sol-artifact-1",
  "contractName": "AttributeToken",
  "sourceName": "contracts/AttributeToken.sol",
  "abi": [
    {
      "inputs": [],
      "stateMutability": "nonpayable",
      "type": "constructor"
    },
    {
      "inputs": [
        {
          "internalType": "address",
          "name": "sender",
          "type": "address"
        },
        {
          "internalType": "uint256",
          "name": "balance",
          "type": "uint256"
        },
        {
          "internalType": "uint256",
          "name": "needed",
          "type": "uint256"
        },
        {
          "internalType": "uint256",
          "name": "tokenId",
          "type": "uint256"
        }
      ],
      "name": "ERC1155InsufficientBalance",
      "type": "error"
    },
    {
      "inputs": [
        {
          "internalType": "address",
          "name": "approver",
          "type": "address"
        }
      ],
      "name": "ERC1155InvalidApprover",
      "type": "error"
    },
    {
      "inputs": [
        {
          "internalType": "uint256",
          "name": "idsLength",
          "type": "uint256"
        },
        {
          "internalType": "uint256",
          "name": "valuesLength",
          "type": "uint256"
        }
      ],
      "name": "ERC1155InvalidArrayLength",
      "type": "error"
    },
    {
      "inputs": [
        {
          "internalType": "address",
          "name": "operator",
          "type": "address"
        }
      ],
      "name": "ERC1155InvalidOperator",
      "type": "error"
    },
    {
      "inputs": [
        {
          "internalType": "address",
          "name": "receiver",
          "type": "address"
        }
      ],
      "name": "ERC1155InvalidReceiver",
      "type": "error"
    },
    {
      "inputs": [
        {
          "internalType": "address",
          "name": "sender",
          "type": "address"
        }
      ],
      "name": "ERC1155InvalidSender",
      "type": "error"
    },
    {
      "inputs": [
        {
          "internalType": "address",
          "name": "operator",
          "type": "address"
        },
        {
          "internalType": "address",
          "name": "owner",
          "type": "address"
        }
      ],
      "name": "ERC1155MissingApprovalForAll",
      "type": "error"
    },
    {
      "anonymous": false,
      "inputs": [
        {
          "indexed": true,
          "internalType": "address",
          "name": "account",
          "type": "address"
        },
        {
          "indexed": true,
          "internalType": "address",
          "name": "operator",
          "type": "address"
        },
        {
          "indexed": false,
          "internalType": "bool",
          "name": "approved",
          "type": "bool"
        }
      ],
      "name": "ApprovalForAll",
      "type": "event"
    },
    {
      "anonymous": false,
      "inputs": [
        {
          "indexed": true,
          "internalType": "address",
          "name": "operator",
          "type": "address"
        },
        {
          "indexed": true,
          "internalType": "address",
          "name": "from",
          "type": "address"
        },
        {
          "indexed": true,
          "internalType": "address",
          "name": "to",
          "type": "address"
        },
        {
          "indexed": false,
          "internalType": "uint256[]",
          "name": "ids",
          "type": "uint256[]"
        },
        {
          "indexed": false,
          "internalType": "uint256[]",
          "name": "values",
          "type": "uint256[]"
        }
      ],
      "name": "TransferBatch",
      "type": "event"
    },
    {
      "anonymous": false,
      "inputs": [
        {
          "indexed": true,
          "internalType": "address",
          "name": "operator",
          "type": "address"
        },
        {
          "indexed": true,
          "internalType": "address",
          "name": "from",
          "type": "address"
        },
        {
          "indexed": true,
          "internalType": "address",
          "name": "to",
          "type": "address"
        },
        {
          "indexed": false,
          "internalType": "uint256",
          "name": "id",
          "type": "uint256"
        },
        {
          "indexed": false,
          "internalType": "uint256",
          "name": "value",
          "type": "uint256"
        }
      ],
      "name": "TransferSingle",
      "type": "event"
    },
    {
      "anonymous": false,
      "inputs": [
        {
          "indexed": false,
          "internalType": "string",
          "name": "value",
          "type": "string"
        },
        {
          "indexed": true,
          "internalType": "uint256",
          "name": "id",
          "type": "uint256"
        }
      ],
      "name": "URI",
      "type": "event"
    },
    {
      "inputs": [
        {
          "internalType": "bytes32",
          "name": "_hashedMessage",
          "type": "bytes32"
        },
        {
          "internalType": "uint8",
          "name": "_v",
          "type": "uint8"
        },
        {
          "internalType": "bytes32",
          "name": "_r",
          "type": "bytes32"
        },
        {
          "internalType": "bytes32",
          "name": "_s",
          "type": "bytes32"
        }
      ],
      "name": "VerifySignedAddress",
      "outputs": [
        {
          "internalType": "address",
          "name": "",
          "type": "address"
        }
      ],
      "stateMutability": "pure",
      "type": "function"
    },
    {
      "inputs": [
        {
          "internalType": "address",
          "name": "account",
          "type": "address"
        },
        {
          "internalType": "uint256",
          "name": "id",
          "type": "uint256"
        }
      ],
      "name": "balanceOf",
      "outputs": [
        {
          "internalType": "uint256",
          "name": "",
          "type": "uint256"
        }
      ],
      "stateMutability": "view",
      "type": "function"
    },
    {
      "inputs": [
        {
          "internalType": "address[]",
          "name": "accounts",
          "type": "address[]"
        },
        {
          "internalType": "uint256[]",
          "name": "ids",
          "type": "uint256[]"
        }
      ],
      "name": "balanceOfBatch",
      "outputs": [
        {
          "internalType": "uint256[]",
          "name": "",
          "type": "uint256[]"
        }
      ],
      "stateMutability": "view",
      "type": "function"
    },
    {
      "inputs": [
        {
          "internalType": "address",
          "name": "account",
          "type": "address"
        },
        {
          "internalType": "uint256",
          "name": "id",
          "type": "uint256"
        },
        {
          "internalType": "uint256",
          "name": "amount",
          "type": "uint256"
        }
      ],
      "name": "burn",
      "outputs": [],
      "stateMutability": "nonpayable",
      "type": "function"
    },
    {
      "inputs": [
        {
          "internalType": "address",
          "name": "account",
          "type": "address"
        },
        {
          "internalType": "uint256[]",
          "name": "ids",
          "type": "uint256[]"
        },
        {
          "internalType": "uint256[]",
          "name": "amounts",
          "type": "uint256[]"
        }
      ],
      "name": "burnBatch",
      "outputs": [],
      "stateMutability": "nonpayable",
      "type": "function"
    },
    {
      "inputs": [
        {
          "internalType": "address",
          "name": "holder",
          "type": "address"
        },
        {
          "internalType": "bytes32",
          "name": "_hashedMessage",
          "type": "bytes32"
        },
        {
          "internalType": "uint8",
          "name": "_v",
          "type": "uint8"
        },
        {
          "internalType": "bytes32",
          "name": "_r",
          "type": "bytes32"
        },
        {
          "internalType": "bytes32",
          "name": "_s",
          "type": "bytes32"
        }
      ],
      "name": "generateAttributeList",
      "outputs": [
        {
          "internalType": "uint256[]",
          "name": "",
          "type": "uint256[]"
        }
      ],
      "stateMutability": "view",
      "type": "function"
    },
    {
      "inputs": [
        {
          "internalType": "address",
          "name": "account",
          "type": "address"
        },
        {
          "internalType": "address",
          "name": "operator",
          "type": "address"
        }
      ],
      "name": "isApprovedForAll",
      "outputs": [
        {
          "internalType": "bool",
          "name": "",
          "type": "bool"
        }
      ],
      "stateMutability": "view",
      "type": "function"
    },
    {
      "inputs": [
        {
          "internalType": "address",
          "name": "to",
          "type": "address"
        },
        {
          "internalType": "uint256",
          "name": "id",
          "type": "uint256"
        },
        {
          "internalType": "uint256",
          "name": "amount",
          "type": "uint256"
        }
      ],
      "name": "mintExistingToken",
      "outputs": [],
      "stateMutability": "nonpayable",
      "type": "function"
    },
    {
      "inputs": [
        {
          "internalType": "address",
          "name": "to",
          "type": "address"
        },
        {
          "internalType": "uint256",
          "name": "id",
          "type": "uint256"
        },
        {
          "internalType": "uint256",
          "name": "amount",
          "type": "uint256"
        }
      ],
      "name": "mintNewToken",
      "outputs": [],
      "stateMutability": "nonpayable",
      "type": "function"
    },
    {
      "inputs": [
        {
          "internalType": "address",
          "name": "from",
          "type": "address"
        },
        {
          "internalType": "address",
          "name": "to",
          "type": "address"
        },
        {
          "internalType": "uint256[]",
          "name": "ids",
          "type": "uint256[]"
        },
        {
          "internalType": "uint256[]",
          "name": "amounts",
          "type": "uint256[]"
        },
        {
          "internalType": "bytes",
          "name": "data",
          "type": "bytes"
        }
      ],
      "name": "safeBatchTransferFrom",
      "outputs": [],
      "stateMutability": "nonpayable",
      "type": "function"
    },
    {
      "inputs": [
        {
          "internalType": "address",
          "name": "from",
          "type": "address"
        },
        {
          "internalType": "address",
          "name": "to",
          "type": "address"
        },
        {
          "internalType": "uint256",
          "name": "id",
          "type": "uint256"
        },
        {
          "internalType": "uint256",
          "name": "amount",
          "type": "uint256"
        },
        {
          "internalType": "bytes",
          "name": "data",
          "type": "bytes"
        }
      ],
      "name": "safeTransferFrom",
      "outputs": [],
      "stateMutability": "nonpayable",
      "type": "function"
    },
    {
      "inputs": [
        {
          "internalType": "address",
          "name": "operator",
          "type": "address"
        },
        {
          "internalType": "bool",
          "name": "approved",
          "type": "bool"
        }
      ],
      "name": "setApprovalForAll",
      "outputs": [],
      "stateMutability": "nonpayable",
      "type": "function"
    },
    {
      "inputs": [
        {
          "internalType": "bytes4",
          "name": "interfaceId",
          "type": "bytes4"
        }
      ],
      "name": "supportsInterface",
      "outputs": [
        {
          "internalType": "bool",
          "name": "",
          "type": "bool"
        }
      ],
      "stateMutability": "view",
      "type": "function"
    },
    {
      "inputs": [
        {
          "internalType": "uint256",
          "name": "",
          "type": "uint256"
        }
      ],
      "name": "tokenCreators",
      "outputs": [
        {
          "internalType": "address",
          "name": "",
          "type": "address"
        }
      ],
      "stateMutability": "view",
      "type": "function"
    },
    {
      "inputs": [
        {
          "internalType": "uint256",
          "name": "",
          "type": "uint256"
        }
      ],
      "name": "uri",
      "outputs": [
        {
          "internalType": "string",
          "name": "",
          "type": "string"
        }
      ],
      "stateMutability": "view",
      "type": "function"
    }
  ],
  "bytecode": "0x60806040523480156200001157600080fd5b506040518060200160405280600081525062000033816200003a60201b60201c565b50620003b0565b80600290816200004b9190620002c9565b5050565b600081519050919050565b7f4e487b7100000000000000000000000000000000000000000000000000000000600052604160045260246000fd5b7f4e487b7100000000000000000000000000000000000000000000000000000000600052602260045260246000fd5b60006002820490506001821680620000d157607f821691505b602082108103620000e757620000e662000089565b5b50919050565b60008190508160005260206000209050919050565b60006020601f8301049050919050565b600082821b905092915050565b600060088302620001517fffffffffffffffffffffffffffffffffffffffffffffffffffffffffffffffff8262000112565b6200015d868362000112565b95508019841693508086168417925050509392505050565b6000819050919050565b6000819050919050565b6000620001aa620001a46200019e8462000175565b6200017f565b62000175565b9050919050565b6000819050919050565b620001c68362000189565b620001de620001d582620001b1565b8484546200011f565b825550505050565b600090565b620001f5620001e6565b62000202818484620001bb565b505050565b5b818110156200022a576200021e600082620001eb565b60018101905062000208565b5050565b601f82111562000279576200024381620000ed565b6200024e8462000102565b810160208510156200025e578190505b620002766200026d8562000102565b83018262000207565b50505b505050565b600082821c905092915050565b60006200029e600019846008026200027e565b1980831691505092915050565b6000620002b983836200028b565b9150826002028217905092915050565b620002d4826200004f565b67ffffffffffffffff811115620002f057620002ef6200005a565b5b620002fc8254620000b8565b620003098282856200022e565b600060209050601f8311600181146200034157600084156200032c578287015190505b620003388582620002ab565b865550620003a8565b601f1984166200035186620000ed565b60005b828110156200037b5784890151825560018201915060208501945060208101905062000354565b868310156200039b578489015162000397601f8916826200028b565b8355505b6001600288020188555050505b505050505050565b61388380620003c06000396000f3fe608060405234801561001057600080fd5b50600436106100f45760003560e01c8063a22cb46511610097578063e0fd045f11610066578063e0fd045f146102a5578063e985e9c5146102d5578063f242432a14610305578063f5298aca14610321576100f4565b8063a22cb46514610221578063b9246a5a1461023d578063c42bfbb114610259578063d5cb26b614610275576100f4565b80632eb2c2d6116100d35780632eb2c2d6146101895780634e1273f4146101a55780636a54edc0146101d55780636b20c45414610205576100f4565b8062fdd58e146100f957806301ffc9a7146101295780630e89341c14610159575b600080fd5b610113600480360381019061010e9190612519565b61033d565b6040516101209190612568565b60405180910390f35b610143600480360381019061013e91906125db565b610397565b6040516101509190612623565b60405180910390f35b610173600480360381019061016e919061263e565b610479565b60405161018091906126fb565b60405180910390f35b6101a3600480360381019061019e919061291a565b61050d565b005b6101bf60048036038101906101ba9190612aac565b6106e8565b6040516101cc9190612be2565b60405180910390f35b6101ef60048036038101906101ea9190612c73565b6107f7565b6040516101fc9190612ce9565b60405180910390f35b61021f600480360381019061021a9190612d04565b6108c0565b005b61023b60048036038101906102369190612dbb565b610ae7565b005b61025760048036038101906102529190612dfb565b610afd565b005b610273600480360381019061026e9190612dfb565b610ca9565b005b61028f600480360381019061028a9190612e4e565b610e38565b60405161029c9190612be2565b60405180910390f35b6102bf60048036038101906102ba919061263e565b61101b565b6040516102cc9190612ce9565b60405180910390f35b6102ef60048036038101906102ea9190612ec9565b61104e565b6040516102fc9190612623565b60405180910390f35b61031f600480360381019061031a9190612f09565b6110e2565b005b61033b60048036038101906103369190612dfb565b611251565b005b600080600083815260200190815260200160002060008473ffffffffffffffffffffffffffffffffffffffff1673ffffffffffffffffffffffffffffffffffffffff16815260200190815260200160002054905092915050565b60007fd9b67a26000000000000000000000000000000000000000000000000000000007bffffffffffffffffffffffffffffffffffffffffffffffffffffffff1916827bffffffffffffffffffffffffffffffffffffffffffffffffffffffff1916148061046257507f0e89341c000000000000000000000000000000000000000000000000000000007bffffffffffffffffffffffffffffffffffffffffffffffffffffffff1916827bffffffffffffffffffffffffffffffffffffffffffffffffffffffff1916145b806104725750610471826113f0565b5b9050919050565b60606002805461048890612fcf565b80601f01602080910402602001604051908101604052809291908181526020018280546104b490612fcf565b80156105015780601f106104d657610100808354040283529160200191610501565b820191906000526020600020905b8154815290600101906020018083116104e457829003601f168201915b50505050509050919050565b60005b83518110156106d3573373ffffffffffffffffffffffffffffffffffffffff168673ffffffffffffffffffffffffffffffffffffffff1614610587576040517f08c379a000000000000000000000000000000000000000000000000000000000815260040161057e9061304c565b60405180910390fd5b3373ffffffffffffffffffffffffffffffffffffffff16600360008684815181106105b5576105b461306c565b5b6020026020010151815260200190815260200160002060009054906101000a900473ffffffffffffffffffffffffffffffffffffffff1673ffffffffffffffffffffffffffffffffffffffff1614610642576040517f08c379a00000000000000000000000000000000000000000000000000000000081526004016106399061310d565b60405180910390fd5b8281815181106106555761065461306c565b5b6020026020010151610681338684815181106106745761067361306c565b5b602002602001015161033d565b10156106c2576040517f08c379a00000000000000000000000000000000000000000000000000000000081526004016106b99061319f565b60405180910390fd5b806106cc906131ee565b9050610510565b506106e1858585858561145a565b5050505050565b6060815183511461073457815183516040517f5b05999100000000000000000000000000000000000000000000000000000000815260040161072b929190613236565b60405180910390fd5b6000835167ffffffffffffffff81111561075157610750612722565b5b60405190808252806020026020018201604052801561077f5781602001602082028036833780820191505090505b50905060005b84518110156107ec576107bc6107a4828761150290919063ffffffff16565b6107b7838761151690919063ffffffff16565b61033d565b8282815181106107cf576107ce61306c565b5b602002602001018181525050806107e5906131ee565b9050610785565b508091505092915050565b6000806040518060400160405280601c81526020017f19457468657265756d205369676e6564204d6573736167653a0a3332000000008152509050600081876040516020016108479291906132c7565b604051602081830303815290604052805190602001209050600060018288888860405160008152602001604052604051610884949392919061330d565b6020604051602081039080840390855afa1580156108a6573d6000803e3d6000fd5b505050602060405103519050809350505050949350505050565b60005b8251811015610ad657600073ffffffffffffffffffffffffffffffffffffffff16600360008584815181106108fb576108fa61306c565b5b6020026020010151815260200190815260200160002060009054906101000a900473ffffffffffffffffffffffffffffffffffffffff1673ffffffffffffffffffffffffffffffffffffffff1603610988576040517f08c379a000000000000000000000000000000000000000000000000000000000815260040161097f9061339e565b60405180910390fd5b81818151811061099b5761099a61306c565b5b60200260200101516109c7858584815181106109ba576109b961306c565b5b602002602001015161033d565b1015610a08576040517f08c379a00000000000000000000000000000000000000000000000000000000081526004016109ff90613430565b60405180910390fd5b3373ffffffffffffffffffffffffffffffffffffffff1660036000858481518110610a3657610a3561306c565b5b6020026020010151815260200190815260200160002060009054906101000a900473ffffffffffffffffffffffffffffffffffffffff1673ffffffffffffffffffffffffffffffffffffffff1614610ac3576040517f08c379a0000000000000000000000000000000000000000000000000000000008152600401610aba9061310d565b60405180910390fd5b8080610ace906131ee565b9150506108c3565b50610ae283838361152a565b505050565b610af9610af26115d6565b83836115de565b5050565b60008211610b40576040517f08c379a0000000000000000000000000000000000000000000000000000000008152600401610b379061349c565b60405180910390fd5b600073ffffffffffffffffffffffffffffffffffffffff166003600084815260200190815260200160002060009054906101000a900473ffffffffffffffffffffffffffffffffffffffff1673ffffffffffffffffffffffffffffffffffffffff1614610be2576040517f08c379a0000000000000000000000000000000000000000000000000000000008152600401610bd990613508565b60405180910390fd5b336003600084815260200190815260200160002060006101000a81548173ffffffffffffffffffffffffffffffffffffffff021916908373ffffffffffffffffffffffffffffffffffffffff160217905550600482908060018154018082558091505060019003906000526020600020016000909190919091505560006040518060400160405280600181526020017f12000000000000000000000000000000000000000000000000000000000000008152509050610ca38484848461174e565b50505050565b600073ffffffffffffffffffffffffffffffffffffffff166003600084815260200190815260200160002060009054906101000a900473ffffffffffffffffffffffffffffffffffffffff1673ffffffffffffffffffffffffffffffffffffffff1603610d4b576040517f08c379a0000000000000000000000000000000000000000000000000000000008152600401610d429061339e565b60405180910390fd5b3373ffffffffffffffffffffffffffffffffffffffff166003600084815260200190815260200160002060009054906101000a900473ffffffffffffffffffffffffffffffffffffffff1673ffffffffffffffffffffffffffffffffffffffff1614610dec576040517f08c379a0000000000000000000000000000000000000000000000000000000008152600401610de39061359a565b60405180910390fd5b60006040518060400160405280600181526020017f12000000000000000000000000000000000000000000000000000000000000008152509050610e328484848461174e565b50505050565b60606000610e48868686866107f7565b90508073ffffffffffffffffffffffffffffffffffffffff168773ffffffffffffffffffffffffffffffffffffffff1614610eb8576040517f08c379a0000000000000000000000000000000000000000000000000000000008152600401610eaf90613606565b60405180910390fd5b6000805b600480549050811015610f1b576000610ef38a60048481548110610ee357610ee261306c565b5b906000526020600020015461033d565b1115610f08578180610f04906131ee565b9250505b8080610f13906131ee565b915050610ebc565b5060008167ffffffffffffffff811115610f3857610f37612722565b5b604051908082528060200260200182016040528015610f665781602001602082028036833780820191505090505b5090506000805b60048054905081101561100a576000610fa48c60048481548110610f9457610f9361306c565b5b906000526020600020015461033d565b1115610ff75760048181548110610fbe57610fbd61306c565b5b9060005260206000200154838381518110610fdc57610fdb61306c565b5b6020026020010181815250508180610ff3906131ee565b9250505b8080611002906131ee565b915050610f6d565b508194505050505095945050505050565b60036020528060005260406000206000915054906101000a900473ffffffffffffffffffffffffffffffffffffffff1681565b6000600160008473ffffffffffffffffffffffffffffffffffffffff1673ffffffffffffffffffffffffffffffffffffffff16815260200190815260200160002060008373ffffffffffffffffffffffffffffffffffffffff1673ffffffffffffffffffffffffffffffffffffffff16815260200190815260200160002060009054906101000a900460ff16905092915050565b3373ffffffffffffffffffffffffffffffffffffffff168573ffffffffffffffffffffffffffffffffffffffff1614611150576040517f08c379a00000000000000000000000000000000000000000000000000000000081526004016111479061304c565b60405180910390fd5b3373ffffffffffffffffffffffffffffffffffffffff166003600085815260200190815260200160002060009054906101000a900473ffffffffffffffffffffffffffffffffffffffff1673ffffffffffffffffffffffffffffffffffffffff16146111f1576040517f08c379a00000000000000000000000000000000000000000000000000000000081526004016111e89061359a565b60405180910390fd5b816111fc338561033d565b101561123d576040517f08c379a00000000000000000000000000000000000000000000000000000000081526004016112349061319f565b60405180910390fd5b61124a85858585856117e7565b5050505050565b600073ffffffffffffffffffffffffffffffffffffffff166003600084815260200190815260200160002060009054906101000a900473ffffffffffffffffffffffffffffffffffffffff1673ffffffffffffffffffffffffffffffffffffffff16036112f3576040517f08c379a00000000000000000000000000000000000000000000000000000000081526004016112ea9061339e565b60405180910390fd5b806112fe848461033d565b101561133f576040517f08c379a000000000000000000000000000000000000000000000000000000000815260040161133690613430565b60405180910390fd5b3373ffffffffffffffffffffffffffffffffffffffff166003600084815260200190815260200160002060009054906101000a900473ffffffffffffffffffffffffffffffffffffffff1673ffffffffffffffffffffffffffffffffffffffff16146113e0576040517f08c379a00000000000000000000000000000000000000000000000000000000081526004016113d79061359a565b60405180910390fd5b6113eb83838361188f565b505050565b60007f01ffc9a7000000000000000000000000000000000000000000000000000000007bffffffffffffffffffffffffffffffffffffffffffffffffffffffff1916827bffffffffffffffffffffffffffffffffffffffffffffffffffffffff1916149050919050565b60006114646115d6565b90508073ffffffffffffffffffffffffffffffffffffffff168673ffffffffffffffffffffffffffffffffffffffff16141580156114a957506114a7868261104e565b155b156114ed5780866040517fe237d9220000000000000000000000000000000000000000000000000000000081526004016114e4929190613626565b60405180910390fd5b6114fa868686868661193b565b505050505050565b600060208202602084010151905092915050565b600060208202602084010151905092915050565b6115326115d6565b73ffffffffffffffffffffffffffffffffffffffff168373ffffffffffffffffffffffffffffffffffffffff161415801561157b5750611579836115746115d6565b61104e565b155b156115c6576115886115d6565b836040517fe237d9220000000000000000000000000000000000000000000000000000000081526004016115bd929190613626565b60405180910390fd5b6115d1838383611a33565b505050565b600033905090565b600073ffffffffffffffffffffffffffffffffffffffff168273ffffffffffffffffffffffffffffffffffffffff16036116505760006040517fced3e1000000000000000000000000000000000000000000000000000000000081526004016116479190612ce9565b60405180910390fd5b80600160008573ffffffffffffffffffffffffffffffffffffffff1673ffffffffffffffffffffffffffffffffffffffff16815260200190815260200160002060008473ffffffffffffffffffffffffffffffffffffffff1673ffffffffffffffffffffffffffffffffffffffff16815260200190815260200160002060006101000a81548160ff0219169083151502179055508173ffffffffffffffffffffffffffffffffffffffff168373ffffffffffffffffffffffffffffffffffffffff167f17307eab39ab6107e8899845ad3d59bd9653f200f220920489ca2b5937696c31836040516117419190612623565b60405180910390a3505050565b600073ffffffffffffffffffffffffffffffffffffffff168473ffffffffffffffffffffffffffffffffffffffff16036117c05760006040517f57f447ce0000000000000000000000000000000000000000000000000000000081526004016117b79190612ce9565b60405180910390fd5b6000806117cd8585611ac7565b915091506117df600087848487611af7565b505050505050565b60006117f16115d6565b90508073ffffffffffffffffffffffffffffffffffffffff168673ffffffffffffffffffffffffffffffffffffffff16141580156118365750611834868261104e565b155b1561187a5780866040517fe237d922000000000000000000000000000000000000000000000000000000008152600401611871929190613626565b60405180910390fd5b6118878686868686611ba9565b505050505050565b6118976115d6565b73ffffffffffffffffffffffffffffffffffffffff168373ffffffffffffffffffffffffffffffffffffffff16141580156118e057506118de836118d96115d6565b61104e565b155b1561192b576118ed6115d6565b836040517fe237d922000000000000000000000000000000000000000000000000000000008152600401611922929190613626565b60405180910390fd5b611936838383611cb4565b505050565b600073ffffffffffffffffffffffffffffffffffffffff168473ffffffffffffffffffffffffffffffffffffffff16036119ad5760006040517f57f447ce0000000000000000000000000000000000000000000000000000000081526004016119a49190612ce9565b60405180910390fd5b600073ffffffffffffffffffffffffffffffffffffffff168573ffffffffffffffffffffffffffffffffffffffff1603611a1f5760006040517f01a83514000000000000000000000000000000000000000000000000000000008152600401611a169190612ce9565b60405180910390fd5b611a2c8585858585611af7565b5050505050565b600073ffffffffffffffffffffffffffffffffffffffff168373ffffffffffffffffffffffffffffffffffffffff1603611aa55760006040517f01a83514000000000000000000000000000000000000000000000000000000008152600401611a9c9190612ce9565b60405180910390fd5b611ac2836000848460405180602001604052806000815250611af7565b505050565b60608060405191506001825283602083015260408201905060018152826020820152604081016040529250929050565b611b0385858585611d5b565b600073ffffffffffffffffffffffffffffffffffffffff168473ffffffffffffffffffffffffffffffffffffffff1614611ba2576000611b416115d6565b90506001845103611b91576000611b6260008661151690919063ffffffff16565b90506000611b7a60008661151690919063ffffffff16565b9050611b8a838989858589612109565b5050611ba0565b611b9f8187878787876122bd565b5b505b5050505050565b600073ffffffffffffffffffffffffffffffffffffffff168473ffffffffffffffffffffffffffffffffffffffff1603611c1b5760006040517f57f447ce000000000000000000000000000000000000000000000000000000008152600401611c129190612ce9565b60405180910390fd5b600073ffffffffffffffffffffffffffffffffffffffff168573ffffffffffffffffffffffffffffffffffffffff1603611c8d5760006040517f01a83514000000000000000000000000000000000000000000000000000000008152600401611c849190612ce9565b60405180910390fd5b600080611c9a8585611ac7565b91509150611cab8787848487611af7565b50505050505050565b600073ffffffffffffffffffffffffffffffffffffffff168373ffffffffffffffffffffffffffffffffffffffff1603611d265760006040517f01a83514000000000000000000000000000000000000000000000000000000008152600401611d1d9190612ce9565b60405180910390fd5b600080611d338484611ac7565b91509150611d54856000848460405180602001604052806000815250611af7565b5050505050565b8051825114611da557815181516040517f5b059991000000000000000000000000000000000000000000000000000000008152600401611d9c929190613236565b60405180910390fd5b6000611daf6115d6565b905060005b8351811015611fc4576000611dd2828661151690919063ffffffff16565b90506000611de9838661151690919063ffffffff16565b9050600073ffffffffffffffffffffffffffffffffffffffff168873ffffffffffffffffffffffffffffffffffffffff1614611f1657600080600084815260200190815260200160002060008a73ffffffffffffffffffffffffffffffffffffffff1673ffffffffffffffffffffffffffffffffffffffff16815260200190815260200160002054905081811015611ebe57888183856040517f03dee4c5000000000000000000000000000000000000000000000000000000008152600401611eb5949392919061364f565b60405180910390fd5b81810360008085815260200190815260200160002060008b73ffffffffffffffffffffffffffffffffffffffff1673ffffffffffffffffffffffffffffffffffffffff16815260200190815260200160002081905550505b600073ffffffffffffffffffffffffffffffffffffffff168773ffffffffffffffffffffffffffffffffffffffff1614611fb1578060008084815260200190815260200160002060008973ffffffffffffffffffffffffffffffffffffffff1673ffffffffffffffffffffffffffffffffffffffff1681526020019081526020016000206000828254611fa99190613694565b925050819055505b505080611fbd906131ee565b9050611db4565b506001835103612083576000611fe460008561151690919063ffffffff16565b90506000611ffc60008561151690919063ffffffff16565b90508573ffffffffffffffffffffffffffffffffffffffff168773ffffffffffffffffffffffffffffffffffffffff168473ffffffffffffffffffffffffffffffffffffffff167fc3d58168c5ae7397731d063d5bbf3d657854427343f4c083240f7aacaa2d0f628585604051612074929190613236565b60405180910390a45050612102565b8373ffffffffffffffffffffffffffffffffffffffff168573ffffffffffffffffffffffffffffffffffffffff168273ffffffffffffffffffffffffffffffffffffffff167f4a39dc06d4c0dbc64b70af90fd698a233a518aa5d07e595d983b8c0526c8f7fb86866040516120f99291906136c8565b60405180910390a45b5050505050565b60008473ffffffffffffffffffffffffffffffffffffffff163b11156122b5578373ffffffffffffffffffffffffffffffffffffffff1663f23a6e6187878686866040518663ffffffff1660e01b815260040161216a959493929190613749565b6020604051808303816000875af19250505080156121a657506040513d601f19601f820116820180604052508101906121a391906137b8565b60015b61222a573d80600081146121d6576040519150601f19603f3d011682016040523d82523d6000602084013e6121db565b606091505b50600081510361222257846040517f57f447ce0000000000000000000000000000000000000000000000000000000081526004016122199190612ce9565b60405180910390fd5b805181602001fd5b63f23a6e6160e01b7bffffffffffffffffffffffffffffffffffffffffffffffffffffffff1916817bffffffffffffffffffffffffffffffffffffffffffffffffffffffff1916146122b357846040517f57f447ce0000000000000000000000000000000000000000000000000000000081526004016122aa9190612ce9565b60405180910390fd5b505b505050505050565b60008473ffffffffffffffffffffffffffffffffffffffff163b1115612469578373ffffffffffffffffffffffffffffffffffffffff1663bc197c8187878686866040518663ffffffff1660e01b815260040161231e9594939291906137e5565b6020604051808303816000875af192505050801561235a57506040513d601f19601f8201168201806040525081019061235791906137b8565b60015b6123de573d806000811461238a576040519150601f19603f3d011682016040523d82523d6000602084013e61238f565b606091505b5060008151036123d657846040517f57f447ce0000000000000000000000000000000000000000000000000000000081526004016123cd9190612ce9565b60405180910390fd5b805181602001fd5b63bc197c8160e01b7bffffffffffffffffffffffffffffffffffffffffffffffffffffffff1916817bffffffffffffffffffffffffffffffffffffffffffffffffffffffff19161461246757846040517f57f447ce00000000000000000000000000000000000000000000000000000000815260040161245e9190612ce9565b60405180910390fd5b505b505050505050565b6000604051905090565b600080fd5b600080fd5b600073ffffffffffffffffffffffffffffffffffffffff82169050919050565b60006124b082612485565b9050919050565b6124c0816124a5565b81146124cb57600080fd5b50565b6000813590506124dd816124b7565b92915050565b6000819050919050565b6124f6816124e3565b811461250157600080fd5b50565b600081359050612513816124ed565b92915050565b600080604083850312156125305761252f61247b565b5b600061253e858286016124ce565b925050602061254f85828601612504565b9150509250929050565b612562816124e3565b82525050565b600060208201905061257d6000830184612559565b92915050565b60007fffffffff0000000000000000000000000000000000000000000000000000000082169050919050565b6125b881612583565b81146125c357600080fd5b50565b6000813590506125d5816125af565b92915050565b6000602082840312156125f1576125f061247b565b5b60006125ff848285016125c6565b91505092915050565b60008115159050919050565b61261d81612608565b82525050565b60006020820190506126386000830184612614565b92915050565b6000602082840312156126545761265361247b565b5b600061266284828501612504565b91505092915050565b600081519050919050565b600082825260208201905092915050565b60005b838110156126a557808201518184015260208101905061268a565b60008484015250505050565b6000601f19601f8301169050919050565b60006126cd8261266b565b6126d78185612676565b93506126e7818560208601612687565b6126f0816126b1565b840191505092915050565b6000602082019050818103600083015261271581846126c2565b905092915050565b600080fd5b7f4e487b7100000000000000000000000000000000000000000000000000000000600052604160045260246000fd5b61275a826126b1565b810181811067ffffffffffffffff8211171561277957612778612722565b5b80604052505050565b600061278c612471565b90506127988282612751565b919050565b600067ffffffffffffffff8211156127b8576127b7612722565b5b602082029050602081019050919050565b600080fd5b60006127e16127dc8461279d565b612782565b90508083825260208201905060208402830185811115612804576128036127c9565b5b835b8181101561282d57806128198882612504565b845260208401935050602081019050612806565b5050509392505050565b600082601f83011261284c5761284b61271d565b5b813561285c8482602086016127ce565b91505092915050565b600080fd5b600067ffffffffffffffff82111561288557612884612722565b5b61288e826126b1565b9050602081019050919050565b82818337600083830152505050565b60006128bd6128b88461286a565b612782565b9050828152602081018484840111156128d9576128d8612865565b5b6128e484828561289b565b509392505050565b600082601f8301126129015761290061271d565b5b81356129118482602086016128aa565b91505092915050565b600080600080600060a086880312156129365761293561247b565b5b6000612944888289016124ce565b9550506020612955888289016124ce565b945050604086013567ffffffffffffffff81111561297657612975612480565b5b61298288828901612837565b935050606086013567ffffffffffffffff8111156129a3576129a2612480565b5b6129af88828901612837565b925050608086013567ffffffffffffffff8111156129d0576129cf612480565b5b6129dc888289016128ec565b9150509295509295909350565b600067ffffffffffffffff821115612a0457612a03612722565b5b602082029050602081019050919050565b6000612a28612a23846129e9565b612782565b90508083825260208201905060208402830185811115612a4b57612a4a6127c9565b5b835b81811015612a745780612a6088826124ce565b845260208401935050602081019050612a4d565b5050509392505050565b600082601f830112612a9357612a9261271d565b5b8135612aa3848260208601612a15565b91505092915050565b60008060408385031215612ac357612ac261247b565b5b600083013567ffffffffffffffff811115612ae157612ae0612480565b5b612aed85828601612a7e565b925050602083013567ffffffffffffffff811115612b0e57612b0d612480565b5b612b1a85828601612837565b9150509250929050565b600081519050919050565b600082825260208201905092915050565b6000819050602082019050919050565b612b59816124e3565b82525050565b6000612b6b8383612b50565b60208301905092915050565b6000602082019050919050565b6000612b8f82612b24565b612b998185612b2f565b9350612ba483612b40565b8060005b83811015612bd5578151612bbc8882612b5f565b9750612bc783612b77565b925050600181019050612ba8565b5085935050505092915050565b60006020820190508181036000830152612bfc8184612b84565b905092915050565b6000819050919050565b612c1781612c04565b8114612c2257600080fd5b50565b600081359050612c3481612c0e565b92915050565b600060ff82169050919050565b612c5081612c3a565b8114612c5b57600080fd5b50565b600081359050612c6d81612c47565b92915050565b60008060008060808587031215612c8d57612c8c61247b565b5b6000612c9b87828801612c25565b9450506020612cac87828801612c5e565b9350506040612cbd87828801612c25565b9250506060612cce87828801612c25565b91505092959194509250565b612ce3816124a5565b82525050565b6000602082019050612cfe6000830184612cda565b92915050565b600080600060608486031215612d1d57612d1c61247b565b5b6000612d2b868287016124ce565b935050602084013567ffffffffffffffff811115612d4c57612d4b612480565b5b612d5886828701612837565b925050604084013567ffffffffffffffff811115612d7957612d78612480565b5b612d8586828701612837565b9150509250925092565b612d9881612608565b8114612da357600080fd5b50565b600081359050612db581612d8f565b92915050565b60008060408385031215612dd257612dd161247b565b5b6000612de0858286016124ce565b9250506020612df185828601612da6565b9150509250929050565b600080600060608486031215612e1457612e1361247b565b5b6000612e22868287016124ce565b9350506020612e3386828701612504565b9250506040612e4486828701612504565b9150509250925092565b600080600080600060a08688031215612e6a57612e6961247b565b5b6000612e78888289016124ce565b9550506020612e8988828901612c25565b9450506040612e9a88828901612c5e565b9350506060612eab88828901612c25565b9250506080612ebc88828901612c25565b9150509295509295909350565b60008060408385031215612ee057612edf61247b565b5b6000612eee858286016124ce565b9250506020612eff858286016124ce565b9150509250929050565b600080600080600060a08688031215612f2557612f2461247b565b5b6000612f33888289016124ce565b9550506020612f44888289016124ce565b9450506040612f5588828901612504565b9350506060612f6688828901612504565b925050608086013567ffffffffffffffff811115612f8757612f86612480565b5b612f93888289016128ec565b9150509295509295909350565b7f4e487b7100000000000000000000000000000000000000000000000000000000600052602260045260246000fd5b60006002820490506001821680612fe757607f821691505b602082108103612ffa57612ff9612fa0565b5b50919050565b7f43616c6c6572206d7573742062652074686520746f6b656e206f776e65720000600082015250565b6000613036601e83612676565b915061304182613000565b602082019050919050565b6000602082019050818103600083015261306581613029565b9050919050565b7f4e487b7100000000000000000000000000000000000000000000000000000000600052603260045260246000fd5b7f43616c6c6572206973206e6f742074686520746f6b656e2063726561746f722060008201527f666f7220616c6c20746f6b656e73000000000000000000000000000000000000602082015250565b60006130f7602e83612676565b91506131028261309b565b604082019050919050565b60006020820190508181036000830152613126816130ea565b9050919050565b7f43616c6c657220646f6573206e6f74206861766520656e6f75676820746f6b6560008201527f6e73000000000000000000000000000000000000000000000000000000000000602082015250565b6000613189602283612676565b91506131948261312d565b604082019050919050565b600060208201905081810360008301526131b88161317c565b9050919050565b7f4e487b7100000000000000000000000000000000000000000000000000000000600052601160045260246000fd5b60006131f9826124e3565b91507fffffffffffffffffffffffffffffffffffffffffffffffffffffffffffffffff820361322b5761322a6131bf565b5b600182019050919050565b600060408201905061324b6000830185612559565b6132586020830184612559565b9392505050565b600081519050919050565b600081905092915050565b60006132808261325f565b61328a818561326a565b935061329a818560208601612687565b80840191505092915050565b6000819050919050565b6132c16132bc82612c04565b6132a6565b82525050565b60006132d38285613275565b91506132df82846132b0565b6020820191508190509392505050565b6132f881612c04565b82525050565b61330781612c3a565b82525050565b600060808201905061332260008301876132ef565b61332f60208301866132fe565b61333c60408301856132ef565b61334960608301846132ef565b95945050505050565b7f546f6b656e20646f6573206e6f74206578697374000000000000000000000000600082015250565b6000613388601483612676565b915061339382613352565b602082019050919050565b600060208201905081810360008301526133b78161337b565b9050919050565b7f4163636f756e7420646f6573206e6f7420686f6c6420746f6b656e732072657160008201527f75657374656420746f206275726e000000000000000000000000000000000000602082015250565b600061341a602e83612676565b9150613425826133be565b604082019050919050565b600060208201905081810360008301526134498161340d565b9050919050565b7f546f6b656e204944206d7573742062652067726561746572207468616e203000600082015250565b6000613486601f83612676565b915061349182613450565b602082019050919050565b600060208201905081810360008301526134b581613479565b9050919050565b7f546f6b656e20494420616c726561647920657869737473000000000000000000600082015250565b60006134f2601783612676565b91506134fd826134bc565b602082019050919050565b60006020820190508181036000830152613521816134e5565b9050919050565b7f43616c6c6572206973206e6f74207468652063726561746f72206f662074686560008201527f20746f6b656e0000000000000000000000000000000000000000000000000000602082015250565b6000613584602683612676565b915061358f82613528565b604082019050919050565b600060208201905081810360008301526135b381613577565b9050919050565b7f43616c6c6572206d757374207369676e206d6573736167650000000000000000600082015250565b60006135f0601883612676565b91506135fb826135ba565b602082019050919050565b6000602082019050818103600083015261361f816135e3565b9050919050565b600060408201905061363b6000830185612cda565b6136486020830184612cda565b9392505050565b60006080820190506136646000830187612cda565b6136716020830186612559565b61367e6040830185612559565b61368b6060830184612559565b95945050505050565b600061369f826124e3565b91506136aa836124e3565b92508282019050808211156136c2576136c16131bf565b5b92915050565b600060408201905081810360008301526136e28185612b84565b905081810360208301526136f68184612b84565b90509392505050565b600082825260208201905092915050565b600061371b8261325f565b61372581856136ff565b9350613735818560208601612687565b61373e816126b1565b840191505092915050565b600060a08201905061375e6000830188612cda565b61376b6020830187612cda565b6137786040830186612559565b6137856060830185612559565b81810360808301526137978184613710565b90509695505050505050565b6000815190506137b2816125af565b92915050565b6000602082840312156137ce576137cd61247b565b5b60006137dc848285016137a3565b91505092915050565b600060a0820190506137fa6000830188612cda565b6138076020830187612cda565b81810360408301526138198186612b84565b9050818103606083015261382d8185612b84565b905081810360808301526138418184613710565b9050969550505050505056fea264697066735822122073e059ea6374b46b003936c58da358442b12559e8762ee00a0feeefe752b8fa764736f6c63430008140033",
  "linkReferences": {},
  "deployedLinkReferences": {}
}