{
  "_format": "hh-sol-artifact-1",
  "contractName": "AttributeToken",
  "sourceName": "contracts/AttributeToken.sol",
  "abi": [
    {
      "inputs": [],
      "stateMutability": "nonpayable",
      "type": "constructor"
    },
    {
      "inputs": [
        {
          "internalType": "address",
          "name": "sender",
          "type": "address"
        },
        {
          "internalType": "uint256",
          "name": "balance",
          "type": "uint256"
        },
        {
          "internalType": "uint256",
          "name": "needed",
          "type": "uint256"
        },
        {
          "internalType": "uint256",
          "name": "tokenId",
          "type": "uint256"
        }
      ],
      "name": "ERC1155InsufficientBalance",
      "type": "error"
    },
    {
      "inputs": [
        {
          "internalType": "address",
          "name": "approver",
          "type": "address"
        }
      ],
      "name": "ERC1155InvalidApprover",
      "type": "error"
    },
    {
      "inputs": [
        {
          "internalType": "uint256",
          "name": "idsLength",
          "type": "uint256"
        },
        {
          "internalType": "uint256",
          "name": "valuesLength",
          "type": "uint256"
        }
      ],
      "name": "ERC1155InvalidArrayLength",
      "type": "error"
    },
    {
      "inputs": [
        {
          "internalType": "address",
          "name": "operator",
          "type": "address"
        }
      ],
      "name": "ERC1155InvalidOperator",
      "type": "error"
    },
    {
      "inputs": [
        {
          "internalType": "address",
          "name": "receiver",
          "type": "address"
        }
      ],
      "name": "ERC1155InvalidReceiver",
      "type": "error"
    },
    {
      "inputs": [
        {
          "internalType": "address",
          "name": "sender",
          "type": "address"
        }
      ],
      "name": "ERC1155InvalidSender",
      "type": "error"
    },
    {
      "inputs": [
        {
          "internalType": "address",
          "name": "operator",
          "type": "address"
        },
        {
          "internalType": "address",
          "name": "owner",
          "type": "address"
        }
      ],
      "name": "ERC1155MissingApprovalForAll",
      "type": "error"
    },
    {
      "anonymous": false,
      "inputs": [
        {
          "indexed": true,
          "internalType": "address",
          "name": "account",
          "type": "address"
        },
        {
          "indexed": true,
          "internalType": "address",
          "name": "operator",
          "type": "address"
        },
        {
          "indexed": false,
          "internalType": "bool",
          "name": "approved",
          "type": "bool"
        }
      ],
      "name": "ApprovalForAll",
      "type": "event"
    },
    {
      "anonymous": false,
      "inputs": [
        {
          "indexed": true,
          "internalType": "address",
          "name": "operator",
          "type": "address"
        },
        {
          "indexed": true,
          "internalType": "address",
          "name": "from",
          "type": "address"
        },
        {
          "indexed": true,
          "internalType": "address",
          "name": "to",
          "type": "address"
        },
        {
          "indexed": false,
          "internalType": "uint256[]",
          "name": "ids",
          "type": "uint256[]"
        },
        {
          "indexed": false,
          "internalType": "uint256[]",
          "name": "values",
          "type": "uint256[]"
        }
      ],
      "name": "TransferBatch",
      "type": "event"
    },
    {
      "anonymous": false,
      "inputs": [
        {
          "indexed": true,
          "internalType": "address",
          "name": "operator",
          "type": "address"
        },
        {
          "indexed": true,
          "internalType": "address",
          "name": "from",
          "type": "address"
        },
        {
          "indexed": true,
          "internalType": "address",
          "name": "to",
          "type": "address"
        },
        {
          "indexed": false,
          "internalType": "uint256",
          "name": "id",
          "type": "uint256"
        },
        {
          "indexed": false,
          "internalType": "uint256",
          "name": "value",
          "type": "uint256"
        }
      ],
      "name": "TransferSingle",
      "type": "event"
    },
    {
      "anonymous": false,
      "inputs": [
        {
          "indexed": false,
          "internalType": "string",
          "name": "value",
          "type": "string"
        },
        {
          "indexed": true,
          "internalType": "uint256",
          "name": "id",
          "type": "uint256"
        }
      ],
      "name": "URI",
      "type": "event"
    },
    {
      "inputs": [
        {
          "internalType": "bytes32",
          "name": "_hashedMessage",
          "type": "bytes32"
        },
        {
          "internalType": "uint8",
          "name": "_v",
          "type": "uint8"
        },
        {
          "internalType": "bytes32",
          "name": "_r",
          "type": "bytes32"
        },
        {
          "internalType": "bytes32",
          "name": "_s",
          "type": "bytes32"
        }
      ],
      "name": "VerifySignedAddress",
      "outputs": [
        {
          "internalType": "address",
          "name": "",
          "type": "address"
        }
      ],
      "stateMutability": "pure",
      "type": "function"
    },
    {
      "inputs": [
        {
          "internalType": "address",
          "name": "account",
          "type": "address"
        },
        {
          "internalType": "uint256",
          "name": "id",
          "type": "uint256"
        }
      ],
      "name": "balanceOf",
      "outputs": [
        {
          "internalType": "uint256",
          "name": "",
          "type": "uint256"
        }
      ],
      "stateMutability": "view",
      "type": "function"
    },
    {
      "inputs": [
        {
          "internalType": "address[]",
          "name": "accounts",
          "type": "address[]"
        },
        {
          "internalType": "uint256[]",
          "name": "ids",
          "type": "uint256[]"
        }
      ],
      "name": "balanceOfBatch",
      "outputs": [
        {
          "internalType": "uint256[]",
          "name": "",
          "type": "uint256[]"
        }
      ],
      "stateMutability": "view",
      "type": "function"
    },
    {
      "inputs": [
        {
          "internalType": "address",
          "name": "account",
          "type": "address"
        },
        {
          "internalType": "uint256",
          "name": "id",
          "type": "uint256"
        },
        {
          "internalType": "uint256",
          "name": "value",
          "type": "uint256"
        }
      ],
      "name": "burn",
      "outputs": [],
      "stateMutability": "nonpayable",
      "type": "function"
    },
    {
      "inputs": [
        {
          "internalType": "address",
          "name": "account",
          "type": "address"
        },
        {
          "internalType": "uint256[]",
          "name": "ids",
          "type": "uint256[]"
        },
        {
          "internalType": "uint256[]",
          "name": "values",
          "type": "uint256[]"
        }
      ],
      "name": "burnBatch",
      "outputs": [],
      "stateMutability": "nonpayable",
      "type": "function"
    },
    {
      "inputs": [
        {
          "internalType": "address",
          "name": "holder",
          "type": "address"
        },
        {
          "internalType": "bytes32",
          "name": "_hashedMessage",
          "type": "bytes32"
        },
        {
          "internalType": "uint8",
          "name": "_v",
          "type": "uint8"
        },
        {
          "internalType": "bytes32",
          "name": "_r",
          "type": "bytes32"
        },
        {
          "internalType": "bytes32",
          "name": "_s",
          "type": "bytes32"
        }
      ],
      "name": "generateAttributeList",
      "outputs": [
        {
          "internalType": "uint256[]",
          "name": "",
          "type": "uint256[]"
        }
      ],
      "stateMutability": "view",
      "type": "function"
    },
    {
      "inputs": [
        {
          "internalType": "address",
          "name": "account",
          "type": "address"
        },
        {
          "internalType": "address",
          "name": "operator",
          "type": "address"
        }
      ],
      "name": "isApprovedForAll",
      "outputs": [
        {
          "internalType": "bool",
          "name": "",
          "type": "bool"
        }
      ],
      "stateMutability": "view",
      "type": "function"
    },
    {
      "inputs": [
        {
          "internalType": "address",
          "name": "to",
          "type": "address"
        },
        {
          "internalType": "uint256",
          "name": "id",
          "type": "uint256"
        },
        {
          "internalType": "uint256",
          "name": "amount",
          "type": "uint256"
        }
      ],
      "name": "mintExistingToken",
      "outputs": [],
      "stateMutability": "nonpayable",
      "type": "function"
    },
    {
      "inputs": [
        {
          "internalType": "address",
          "name": "to",
          "type": "address"
        },
        {
          "internalType": "uint256",
          "name": "id",
          "type": "uint256"
        },
        {
          "internalType": "uint256",
          "name": "amount",
          "type": "uint256"
        }
      ],
      "name": "mintNewToken",
      "outputs": [],
      "stateMutability": "nonpayable",
      "type": "function"
    },
    {
      "inputs": [
        {
          "internalType": "address",
          "name": "from",
          "type": "address"
        },
        {
          "internalType": "address",
          "name": "to",
          "type": "address"
        },
        {
          "internalType": "uint256[]",
          "name": "ids",
          "type": "uint256[]"
        },
        {
          "internalType": "uint256[]",
          "name": "values",
          "type": "uint256[]"
        },
        {
          "internalType": "bytes",
          "name": "data",
          "type": "bytes"
        }
      ],
      "name": "safeBatchTransferFrom",
      "outputs": [],
      "stateMutability": "nonpayable",
      "type": "function"
    },
    {
      "inputs": [
        {
          "internalType": "address",
          "name": "from",
          "type": "address"
        },
        {
          "internalType": "address",
          "name": "to",
          "type": "address"
        },
        {
          "internalType": "uint256",
          "name": "id",
          "type": "uint256"
        },
        {
          "internalType": "uint256",
          "name": "amount",
          "type": "uint256"
        },
        {
          "internalType": "bytes",
          "name": "data",
          "type": "bytes"
        }
      ],
      "name": "safeTransferFrom",
      "outputs": [],
      "stateMutability": "nonpayable",
      "type": "function"
    },
    {
      "inputs": [
        {
          "internalType": "address",
          "name": "operator",
          "type": "address"
        },
        {
          "internalType": "bool",
          "name": "approved",
          "type": "bool"
        }
      ],
      "name": "setApprovalForAll",
      "outputs": [],
      "stateMutability": "nonpayable",
      "type": "function"
    },
    {
      "inputs": [
        {
          "internalType": "bytes4",
          "name": "interfaceId",
          "type": "bytes4"
        }
      ],
      "name": "supportsInterface",
      "outputs": [
        {
          "internalType": "bool",
          "name": "",
          "type": "bool"
        }
      ],
      "stateMutability": "view",
      "type": "function"
    },
    {
      "inputs": [
        {
          "internalType": "uint256",
          "name": "",
          "type": "uint256"
        }
      ],
      "name": "tokenCreators",
      "outputs": [
        {
          "internalType": "address",
          "name": "",
          "type": "address"
        }
      ],
      "stateMutability": "view",
      "type": "function"
    },
    {
      "inputs": [
        {
          "internalType": "uint256",
          "name": "",
          "type": "uint256"
        }
      ],
      "name": "uri",
      "outputs": [
        {
          "internalType": "string",
          "name": "",
          "type": "string"
        }
      ],
      "stateMutability": "view",
      "type": "function"
    }
  ],
  "bytecode": "0x60806040523480156200001157600080fd5b506040518060200160405280600081525062000033816200003a60201b60201c565b50620003b0565b80600290816200004b9190620002c9565b5050565b600081519050919050565b7f4e487b7100000000000000000000000000000000000000000000000000000000600052604160045260246000fd5b7f4e487b7100000000000000000000000000000000000000000000000000000000600052602260045260246000fd5b60006002820490506001821680620000d157607f821691505b602082108103620000e757620000e662000089565b5b50919050565b60008190508160005260206000209050919050565b60006020601f8301049050919050565b600082821b905092915050565b600060088302620001517fffffffffffffffffffffffffffffffffffffffffffffffffffffffffffffffff8262000112565b6200015d868362000112565b95508019841693508086168417925050509392505050565b6000819050919050565b6000819050919050565b6000620001aa620001a46200019e8462000175565b6200017f565b62000175565b9050919050565b6000819050919050565b620001c68362000189565b620001de620001d582620001b1565b8484546200011f565b825550505050565b600090565b620001f5620001e6565b62000202818484620001bb565b505050565b5b818110156200022a576200021e600082620001eb565b60018101905062000208565b5050565b601f82111562000279576200024381620000ed565b6200024e8462000102565b810160208510156200025e578190505b620002766200026d8562000102565b83018262000207565b50505b505050565b600082821c905092915050565b60006200029e600019846008026200027e565b1980831691505092915050565b6000620002b983836200028b565b9150826002028217905092915050565b620002d4826200004f565b67ffffffffffffffff811115620002f057620002ef6200005a565b5b620002fc8254620000b8565b620003098282856200022e565b600060209050601f8311600181146200034157600084156200032c578287015190505b620003388582620002ab565b865550620003a8565b601f1984166200035186620000ed565b60005b828110156200037b5784890151825560018201915060208501945060208101905062000354565b868310156200039b578489015162000397601f8916826200028b565b8355505b6001600288020188555050505b505050505050565b6131be80620003c06000396000f3fe608060405234801561001057600080fd5b50600436106100f45760003560e01c8063a22cb46511610097578063e0fd045f11610066578063e0fd045f146102a5578063e985e9c5146102d5578063f242432a14610305578063f5298aca14610321576100f4565b8063a22cb46514610221578063b9246a5a1461023d578063c42bfbb114610259578063d5cb26b614610275576100f4565b80632eb2c2d6116100d35780632eb2c2d6146101895780634e1273f4146101a55780636a54edc0146101d55780636b20c45414610205576100f4565b8062fdd58e146100f957806301ffc9a7146101295780630e89341c14610159575b600080fd5b610113600480360381019061010e9190611f78565b61033d565b6040516101209190611fc7565b60405180910390f35b610143600480360381019061013e919061203a565b610397565b6040516101509190612082565b60405180910390f35b610173600480360381019061016e919061209d565b610479565b604051610180919061215a565b60405180910390f35b6101a3600480360381019061019e9190612379565b61050d565b005b6101bf60048036038101906101ba919061250b565b6105b5565b6040516101cc9190612641565b60405180910390f35b6101ef60048036038101906101ea91906126d2565b6106c4565b6040516101fc9190612748565b60405180910390f35b61021f600480360381019061021a9190612763565b61078d565b005b61023b6004803603810190610236919061281a565b610839565b005b6102576004803603810190610252919061285a565b61084f565b005b610273600480360381019061026e919061285a565b6109fb565b005b61028f600480360381019061028a91906128ad565b610b8a565b60405161029c9190612641565b60405180910390f35b6102bf60048036038101906102ba919061209d565b610d6d565b6040516102cc9190612748565b60405180910390f35b6102ef60048036038101906102ea9190612928565b610da0565b6040516102fc9190612082565b60405180910390f35b61031f600480360381019061031a9190612968565b610e34565b005b61033b6004803603810190610336919061285a565b610fa3565b005b600080600083815260200190815260200160002060008473ffffffffffffffffffffffffffffffffffffffff1673ffffffffffffffffffffffffffffffffffffffff16815260200190815260200160002054905092915050565b60007fd9b67a26000000000000000000000000000000000000000000000000000000007bffffffffffffffffffffffffffffffffffffffffffffffffffffffff1916827bffffffffffffffffffffffffffffffffffffffffffffffffffffffff1916148061046257507f0e89341c000000000000000000000000000000000000000000000000000000007bffffffffffffffffffffffffffffffffffffffffffffffffffffffff1916827bffffffffffffffffffffffffffffffffffffffffffffffffffffffff1916145b8061047257506104718261104f565b5b9050919050565b60606002805461048890612a2e565b80601f01602080910402602001604051908101604052809291908181526020018280546104b490612a2e565b80156105015780601f106104d657610100808354040283529160200191610501565b820191906000526020600020905b8154815290600101906020018083116104e457829003601f168201915b50505050509050919050565b60006105176110b9565b90508073ffffffffffffffffffffffffffffffffffffffff168673ffffffffffffffffffffffffffffffffffffffff161415801561055c575061055a8682610da0565b155b156105a05780866040517fe237d922000000000000000000000000000000000000000000000000000000008152600401610597929190612a5f565b60405180910390fd5b6105ad86868686866110c1565b505050505050565b6060815183511461060157815183516040517f5b0599910000000000000000000000000000000000000000000000000000000081526004016105f8929190612a88565b60405180910390fd5b6000835167ffffffffffffffff81111561061e5761061d612181565b5b60405190808252806020026020018201604052801561064c5781602001602082028036833780820191505090505b50905060005b84518110156106b95761068961067182876111b990919063ffffffff16565b61068483876111cd90919063ffffffff16565b61033d565b82828151811061069c5761069b612ab1565b5b602002602001018181525050806106b290612b0f565b9050610652565b508091505092915050565b6000806040518060400160405280601c81526020017f19457468657265756d205369676e6564204d6573736167653a0a333200000000815250905060008187604051602001610714929190612bbf565b6040516020818303038152906040528051906020012090506000600182888888604051600081526020016040526040516107519493929190612c05565b6020604051602081039080840390855afa158015610773573d6000803e3d6000fd5b505050602060405103519050809350505050949350505050565b6107956110b9565b73ffffffffffffffffffffffffffffffffffffffff168373ffffffffffffffffffffffffffffffffffffffff16141580156107de57506107dc836107d76110b9565b610da0565b155b15610829576107eb6110b9565b836040517fe237d922000000000000000000000000000000000000000000000000000000008152600401610820929190612a5f565b60405180910390fd5b6108348383836111e1565b505050565b61084b6108446110b9565b8383611275565b5050565b60008211610892576040517f08c379a000000000000000000000000000000000000000000000000000000000815260040161088990612c96565b60405180910390fd5b600073ffffffffffffffffffffffffffffffffffffffff166003600084815260200190815260200160002060009054906101000a900473ffffffffffffffffffffffffffffffffffffffff1673ffffffffffffffffffffffffffffffffffffffff1614610934576040517f08c379a000000000000000000000000000000000000000000000000000000000815260040161092b90612d02565b60405180910390fd5b336003600084815260200190815260200160002060006101000a81548173ffffffffffffffffffffffffffffffffffffffff021916908373ffffffffffffffffffffffffffffffffffffffff160217905550600482908060018154018082558091505060019003906000526020600020016000909190919091505560006040518060400160405280600181526020017f120000000000000000000000000000000000000000000000000000000000000081525090506109f5848484846113e5565b50505050565b600073ffffffffffffffffffffffffffffffffffffffff166003600084815260200190815260200160002060009054906101000a900473ffffffffffffffffffffffffffffffffffffffff1673ffffffffffffffffffffffffffffffffffffffff1603610a9d576040517f08c379a0000000000000000000000000000000000000000000000000000000008152600401610a9490612d6e565b60405180910390fd5b3373ffffffffffffffffffffffffffffffffffffffff166003600084815260200190815260200160002060009054906101000a900473ffffffffffffffffffffffffffffffffffffffff1673ffffffffffffffffffffffffffffffffffffffff1614610b3e576040517f08c379a0000000000000000000000000000000000000000000000000000000008152600401610b3590612e00565b60405180910390fd5b60006040518060400160405280600181526020017f12000000000000000000000000000000000000000000000000000000000000008152509050610b84848484846113e5565b50505050565b60606000610b9a868686866106c4565b90508073ffffffffffffffffffffffffffffffffffffffff168773ffffffffffffffffffffffffffffffffffffffff1614610c0a576040517f08c379a0000000000000000000000000000000000000000000000000000000008152600401610c0190612e6c565b60405180910390fd5b6000805b600480549050811015610c6d576000610c458a60048481548110610c3557610c34612ab1565b5b906000526020600020015461033d565b1115610c5a578180610c5690612b0f565b9250505b8080610c6590612b0f565b915050610c0e565b5060008167ffffffffffffffff811115610c8a57610c89612181565b5b604051908082528060200260200182016040528015610cb85781602001602082028036833780820191505090505b5090506000805b600480549050811015610d5c576000610cf68c60048481548110610ce657610ce5612ab1565b5b906000526020600020015461033d565b1115610d495760048181548110610d1057610d0f612ab1565b5b9060005260206000200154838381518110610d2e57610d2d612ab1565b5b6020026020010181815250508180610d4590612b0f565b9250505b8080610d5490612b0f565b915050610cbf565b508194505050505095945050505050565b60036020528060005260406000206000915054906101000a900473ffffffffffffffffffffffffffffffffffffffff1681565b6000600160008473ffffffffffffffffffffffffffffffffffffffff1673ffffffffffffffffffffffffffffffffffffffff16815260200190815260200160002060008373ffffffffffffffffffffffffffffffffffffffff1673ffffffffffffffffffffffffffffffffffffffff16815260200190815260200160002060009054906101000a900460ff16905092915050565b3373ffffffffffffffffffffffffffffffffffffffff168573ffffffffffffffffffffffffffffffffffffffff1614610ea2576040517f08c379a0000000000000000000000000000000000000000000000000000000008152600401610e9990612ed8565b60405180910390fd5b3373ffffffffffffffffffffffffffffffffffffffff166003600085815260200190815260200160002060009054906101000a900473ffffffffffffffffffffffffffffffffffffffff1673ffffffffffffffffffffffffffffffffffffffff1614610f43576040517f08c379a0000000000000000000000000000000000000000000000000000000008152600401610f3a90612e00565b60405180910390fd5b81610f4e338561033d565b1015610f8f576040517f08c379a0000000000000000000000000000000000000000000000000000000008152600401610f8690612f6a565b60405180910390fd5b610f9c858585858561147e565b5050505050565b610fab6110b9565b73ffffffffffffffffffffffffffffffffffffffff168373ffffffffffffffffffffffffffffffffffffffff1614158015610ff45750610ff283610fed6110b9565b610da0565b155b1561103f576110016110b9565b836040517fe237d922000000000000000000000000000000000000000000000000000000008152600401611036929190612a5f565b60405180910390fd5b61104a838383611526565b505050565b60007f01ffc9a7000000000000000000000000000000000000000000000000000000007bffffffffffffffffffffffffffffffffffffffffffffffffffffffff1916827bffffffffffffffffffffffffffffffffffffffffffffffffffffffff1916149050919050565b600033905090565b600073ffffffffffffffffffffffffffffffffffffffff168473ffffffffffffffffffffffffffffffffffffffff16036111335760006040517f57f447ce00000000000000000000000000000000000000000000000000000000815260040161112a9190612748565b60405180910390fd5b600073ffffffffffffffffffffffffffffffffffffffff168573ffffffffffffffffffffffffffffffffffffffff16036111a55760006040517f01a8351400000000000000000000000000000000000000000000000000000000815260040161119c9190612748565b60405180910390fd5b6111b285858585856115cd565b5050505050565b600060208202602084010151905092915050565b600060208202602084010151905092915050565b600073ffffffffffffffffffffffffffffffffffffffff168373ffffffffffffffffffffffffffffffffffffffff16036112535760006040517f01a8351400000000000000000000000000000000000000000000000000000000815260040161124a9190612748565b60405180910390fd5b6112708360008484604051806020016040528060008152506115cd565b505050565b600073ffffffffffffffffffffffffffffffffffffffff168273ffffffffffffffffffffffffffffffffffffffff16036112e75760006040517fced3e1000000000000000000000000000000000000000000000000000000000081526004016112de9190612748565b60405180910390fd5b80600160008573ffffffffffffffffffffffffffffffffffffffff1673ffffffffffffffffffffffffffffffffffffffff16815260200190815260200160002060008473ffffffffffffffffffffffffffffffffffffffff1673ffffffffffffffffffffffffffffffffffffffff16815260200190815260200160002060006101000a81548160ff0219169083151502179055508173ffffffffffffffffffffffffffffffffffffffff168373ffffffffffffffffffffffffffffffffffffffff167f17307eab39ab6107e8899845ad3d59bd9653f200f220920489ca2b5937696c31836040516113d89190612082565b60405180910390a3505050565b600073ffffffffffffffffffffffffffffffffffffffff168473ffffffffffffffffffffffffffffffffffffffff16036114575760006040517f57f447ce00000000000000000000000000000000000000000000000000000000815260040161144e9190612748565b60405180910390fd5b600080611464858561167f565b915091506114766000878484876115cd565b505050505050565b60006114886110b9565b90508073ffffffffffffffffffffffffffffffffffffffff168673ffffffffffffffffffffffffffffffffffffffff16141580156114cd57506114cb8682610da0565b155b156115115780866040517fe237d922000000000000000000000000000000000000000000000000000000008152600401611508929190612a5f565b60405180910390fd5b61151e86868686866116af565b505050505050565b600073ffffffffffffffffffffffffffffffffffffffff168373ffffffffffffffffffffffffffffffffffffffff16036115985760006040517f01a8351400000000000000000000000000000000000000000000000000000000815260040161158f9190612748565b60405180910390fd5b6000806115a5848461167f565b915091506115c68560008484604051806020016040528060008152506115cd565b5050505050565b6115d9858585856117ba565b600073ffffffffffffffffffffffffffffffffffffffff168473ffffffffffffffffffffffffffffffffffffffff16146116785760006116176110b9565b905060018451036116675760006116386000866111cd90919063ffffffff16565b905060006116506000866111cd90919063ffffffff16565b9050611660838989858589611b68565b5050611676565b611675818787878787611d1c565b5b505b5050505050565b60608060405191506001825283602083015260408201905060018152826020820152604081016040529250929050565b600073ffffffffffffffffffffffffffffffffffffffff168473ffffffffffffffffffffffffffffffffffffffff16036117215760006040517f57f447ce0000000000000000000000000000000000000000000000000000000081526004016117189190612748565b60405180910390fd5b600073ffffffffffffffffffffffffffffffffffffffff168573ffffffffffffffffffffffffffffffffffffffff16036117935760006040517f01a8351400000000000000000000000000000000000000000000000000000000815260040161178a9190612748565b60405180910390fd5b6000806117a0858561167f565b915091506117b187878484876115cd565b50505050505050565b805182511461180457815181516040517f5b0599910000000000000000000000000000000000000000000000000000000081526004016117fb929190612a88565b60405180910390fd5b600061180e6110b9565b905060005b8351811015611a2357600061183182866111cd90919063ffffffff16565b9050600061184883866111cd90919063ffffffff16565b9050600073ffffffffffffffffffffffffffffffffffffffff168873ffffffffffffffffffffffffffffffffffffffff161461197557600080600084815260200190815260200160002060008a73ffffffffffffffffffffffffffffffffffffffff1673ffffffffffffffffffffffffffffffffffffffff1681526020019081526020016000205490508181101561191d57888183856040517f03dee4c50000000000000000000000000000000000000000000000000000000081526004016119149493929190612f8a565b60405180910390fd5b81810360008085815260200190815260200160002060008b73ffffffffffffffffffffffffffffffffffffffff1673ffffffffffffffffffffffffffffffffffffffff16815260200190815260200160002081905550505b600073ffffffffffffffffffffffffffffffffffffffff168773ffffffffffffffffffffffffffffffffffffffff1614611a10578060008084815260200190815260200160002060008973ffffffffffffffffffffffffffffffffffffffff1673ffffffffffffffffffffffffffffffffffffffff1681526020019081526020016000206000828254611a089190612fcf565b925050819055505b505080611a1c90612b0f565b9050611813565b506001835103611ae2576000611a436000856111cd90919063ffffffff16565b90506000611a5b6000856111cd90919063ffffffff16565b90508573ffffffffffffffffffffffffffffffffffffffff168773ffffffffffffffffffffffffffffffffffffffff168473ffffffffffffffffffffffffffffffffffffffff167fc3d58168c5ae7397731d063d5bbf3d657854427343f4c083240f7aacaa2d0f628585604051611ad3929190612a88565b60405180910390a45050611b61565b8373ffffffffffffffffffffffffffffffffffffffff168573ffffffffffffffffffffffffffffffffffffffff168273ffffffffffffffffffffffffffffffffffffffff167f4a39dc06d4c0dbc64b70af90fd698a233a518aa5d07e595d983b8c0526c8f7fb8686604051611b58929190613003565b60405180910390a45b5050505050565b60008473ffffffffffffffffffffffffffffffffffffffff163b1115611d14578373ffffffffffffffffffffffffffffffffffffffff1663f23a6e6187878686866040518663ffffffff1660e01b8152600401611bc9959493929190613084565b6020604051808303816000875af1925050508015611c0557506040513d601f19601f82011682018060405250810190611c0291906130f3565b60015b611c89573d8060008114611c35576040519150601f19603f3d011682016040523d82523d6000602084013e611c3a565b606091505b506000815103611c8157846040517f57f447ce000000000000000000000000000000000000000000000000000000008152600401611c789190612748565b60405180910390fd5b805181602001fd5b63f23a6e6160e01b7bffffffffffffffffffffffffffffffffffffffffffffffffffffffff1916817bffffffffffffffffffffffffffffffffffffffffffffffffffffffff191614611d1257846040517f57f447ce000000000000000000000000000000000000000000000000000000008152600401611d099190612748565b60405180910390fd5b505b505050505050565b60008473ffffffffffffffffffffffffffffffffffffffff163b1115611ec8578373ffffffffffffffffffffffffffffffffffffffff1663bc197c8187878686866040518663ffffffff1660e01b8152600401611d7d959493929190613120565b6020604051808303816000875af1925050508015611db957506040513d601f19601f82011682018060405250810190611db691906130f3565b60015b611e3d573d8060008114611de9576040519150601f19603f3d011682016040523d82523d6000602084013e611dee565b606091505b506000815103611e3557846040517f57f447ce000000000000000000000000000000000000000000000000000000008152600401611e2c9190612748565b60405180910390fd5b805181602001fd5b63bc197c8160e01b7bffffffffffffffffffffffffffffffffffffffffffffffffffffffff1916817bffffffffffffffffffffffffffffffffffffffffffffffffffffffff191614611ec657846040517f57f447ce000000000000000000000000000000000000000000000000000000008152600401611ebd9190612748565b60405180910390fd5b505b505050505050565b6000604051905090565b600080fd5b600080fd5b600073ffffffffffffffffffffffffffffffffffffffff82169050919050565b6000611f0f82611ee4565b9050919050565b611f1f81611f04565b8114611f2a57600080fd5b50565b600081359050611f3c81611f16565b92915050565b6000819050919050565b611f5581611f42565b8114611f6057600080fd5b50565b600081359050611f7281611f4c565b92915050565b60008060408385031215611f8f57611f8e611eda565b5b6000611f9d85828601611f2d565b9250506020611fae85828601611f63565b9150509250929050565b611fc181611f42565b82525050565b6000602082019050611fdc6000830184611fb8565b92915050565b60007fffffffff0000000000000000000000000000000000000000000000000000000082169050919050565b61201781611fe2565b811461202257600080fd5b50565b6000813590506120348161200e565b92915050565b6000602082840312156120505761204f611eda565b5b600061205e84828501612025565b91505092915050565b60008115159050919050565b61207c81612067565b82525050565b60006020820190506120976000830184612073565b92915050565b6000602082840312156120b3576120b2611eda565b5b60006120c184828501611f63565b91505092915050565b600081519050919050565b600082825260208201905092915050565b60005b838110156121045780820151818401526020810190506120e9565b60008484015250505050565b6000601f19601f8301169050919050565b600061212c826120ca565b61213681856120d5565b93506121468185602086016120e6565b61214f81612110565b840191505092915050565b600060208201905081810360008301526121748184612121565b905092915050565b600080fd5b7f4e487b7100000000000000000000000000000000000000000000000000000000600052604160045260246000fd5b6121b982612110565b810181811067ffffffffffffffff821117156121d8576121d7612181565b5b80604052505050565b60006121eb611ed0565b90506121f782826121b0565b919050565b600067ffffffffffffffff82111561221757612216612181565b5b602082029050602081019050919050565b600080fd5b600061224061223b846121fc565b6121e1565b9050808382526020820190506020840283018581111561226357612262612228565b5b835b8181101561228c57806122788882611f63565b845260208401935050602081019050612265565b5050509392505050565b600082601f8301126122ab576122aa61217c565b5b81356122bb84826020860161222d565b91505092915050565b600080fd5b600067ffffffffffffffff8211156122e4576122e3612181565b5b6122ed82612110565b9050602081019050919050565b82818337600083830152505050565b600061231c612317846122c9565b6121e1565b905082815260208101848484011115612338576123376122c4565b5b6123438482856122fa565b509392505050565b600082601f8301126123605761235f61217c565b5b8135612370848260208601612309565b91505092915050565b600080600080600060a0868803121561239557612394611eda565b5b60006123a388828901611f2d565b95505060206123b488828901611f2d565b945050604086013567ffffffffffffffff8111156123d5576123d4611edf565b5b6123e188828901612296565b935050606086013567ffffffffffffffff81111561240257612401611edf565b5b61240e88828901612296565b925050608086013567ffffffffffffffff81111561242f5761242e611edf565b5b61243b8882890161234b565b9150509295509295909350565b600067ffffffffffffffff82111561246357612462612181565b5b602082029050602081019050919050565b600061248761248284612448565b6121e1565b905080838252602082019050602084028301858111156124aa576124a9612228565b5b835b818110156124d357806124bf8882611f2d565b8452602084019350506020810190506124ac565b5050509392505050565b600082601f8301126124f2576124f161217c565b5b8135612502848260208601612474565b91505092915050565b6000806040838503121561252257612521611eda565b5b600083013567ffffffffffffffff8111156125405761253f611edf565b5b61254c858286016124dd565b925050602083013567ffffffffffffffff81111561256d5761256c611edf565b5b61257985828601612296565b9150509250929050565b600081519050919050565b600082825260208201905092915050565b6000819050602082019050919050565b6125b881611f42565b82525050565b60006125ca83836125af565b60208301905092915050565b6000602082019050919050565b60006125ee82612583565b6125f8818561258e565b93506126038361259f565b8060005b8381101561263457815161261b88826125be565b9750612626836125d6565b925050600181019050612607565b5085935050505092915050565b6000602082019050818103600083015261265b81846125e3565b905092915050565b6000819050919050565b61267681612663565b811461268157600080fd5b50565b6000813590506126938161266d565b92915050565b600060ff82169050919050565b6126af81612699565b81146126ba57600080fd5b50565b6000813590506126cc816126a6565b92915050565b600080600080608085870312156126ec576126eb611eda565b5b60006126fa87828801612684565b945050602061270b878288016126bd565b935050604061271c87828801612684565b925050606061272d87828801612684565b91505092959194509250565b61274281611f04565b82525050565b600060208201905061275d6000830184612739565b92915050565b60008060006060848603121561277c5761277b611eda565b5b600061278a86828701611f2d565b935050602084013567ffffffffffffffff8111156127ab576127aa611edf565b5b6127b786828701612296565b925050604084013567ffffffffffffffff8111156127d8576127d7611edf565b5b6127e486828701612296565b9150509250925092565b6127f781612067565b811461280257600080fd5b50565b600081359050612814816127ee565b92915050565b6000806040838503121561283157612830611eda565b5b600061283f85828601611f2d565b925050602061285085828601612805565b9150509250929050565b60008060006060848603121561287357612872611eda565b5b600061288186828701611f2d565b935050602061289286828701611f63565b92505060406128a386828701611f63565b9150509250925092565b600080600080600060a086880312156128c9576128c8611eda565b5b60006128d788828901611f2d565b95505060206128e888828901612684565b94505060406128f9888289016126bd565b935050606061290a88828901612684565b925050608061291b88828901612684565b9150509295509295909350565b6000806040838503121561293f5761293e611eda565b5b600061294d85828601611f2d565b925050602061295e85828601611f2d565b9150509250929050565b600080600080600060a0868803121561298457612983611eda565b5b600061299288828901611f2d565b95505060206129a388828901611f2d565b94505060406129b488828901611f63565b93505060606129c588828901611f63565b925050608086013567ffffffffffffffff8111156129e6576129e5611edf565b5b6129f28882890161234b565b9150509295509295909350565b7f4e487b7100000000000000000000000000000000000000000000000000000000600052602260045260246000fd5b60006002820490506001821680612a4657607f821691505b602082108103612a5957612a586129ff565b5b50919050565b6000604082019050612a746000830185612739565b612a816020830184612739565b9392505050565b6000604082019050612a9d6000830185611fb8565b612aaa6020830184611fb8565b9392505050565b7f4e487b7100000000000000000000000000000000000000000000000000000000600052603260045260246000fd5b7f4e487b7100000000000000000000000000000000000000000000000000000000600052601160045260246000fd5b6000612b1a82611f42565b91507fffffffffffffffffffffffffffffffffffffffffffffffffffffffffffffffff8203612b4c57612b4b612ae0565b5b600182019050919050565b600081519050919050565b600081905092915050565b6000612b7882612b57565b612b828185612b62565b9350612b928185602086016120e6565b80840191505092915050565b6000819050919050565b612bb9612bb482612663565b612b9e565b82525050565b6000612bcb8285612b6d565b9150612bd78284612ba8565b6020820191508190509392505050565b612bf081612663565b82525050565b612bff81612699565b82525050565b6000608082019050612c1a6000830187612be7565b612c276020830186612bf6565b612c346040830185612be7565b612c416060830184612be7565b95945050505050565b7f546f6b656e204944206d7573742062652067726561746572207468616e203000600082015250565b6000612c80601f836120d5565b9150612c8b82612c4a565b602082019050919050565b60006020820190508181036000830152612caf81612c73565b9050919050565b7f546f6b656e20494420616c726561647920657869737473000000000000000000600082015250565b6000612cec6017836120d5565b9150612cf782612cb6565b602082019050919050565b60006020820190508181036000830152612d1b81612cdf565b9050919050565b7f546f6b656e20646f6573206e6f74206578697374000000000000000000000000600082015250565b6000612d586014836120d5565b9150612d6382612d22565b602082019050919050565b60006020820190508181036000830152612d8781612d4b565b9050919050565b7f43616c6c6572206973206e6f74207468652063726561746f72206f662074686560008201527f20746f6b656e0000000000000000000000000000000000000000000000000000602082015250565b6000612dea6026836120d5565b9150612df582612d8e565b604082019050919050565b60006020820190508181036000830152612e1981612ddd565b9050919050565b7f43616c6c6572206d757374207369676e206d6573736167650000000000000000600082015250565b6000612e566018836120d5565b9150612e6182612e20565b602082019050919050565b60006020820190508181036000830152612e8581612e49565b9050919050565b7f43616c6c6572206d7573742062652074686520746f6b656e206f776e65720000600082015250565b6000612ec2601e836120d5565b9150612ecd82612e8c565b602082019050919050565b60006020820190508181036000830152612ef181612eb5565b9050919050565b7f43616c6c657220646f6573206e6f74206861766520656e6f75676820746f6b6560008201527f6e73000000000000000000000000000000000000000000000000000000000000602082015250565b6000612f546022836120d5565b9150612f5f82612ef8565b604082019050919050565b60006020820190508181036000830152612f8381612f47565b9050919050565b6000608082019050612f9f6000830187612739565b612fac6020830186611fb8565b612fb96040830185611fb8565b612fc66060830184611fb8565b95945050505050565b6000612fda82611f42565b9150612fe583611f42565b9250828201905080821115612ffd57612ffc612ae0565b5b92915050565b6000604082019050818103600083015261301d81856125e3565b9050818103602083015261303181846125e3565b90509392505050565b600082825260208201905092915050565b600061305682612b57565b613060818561303a565b93506130708185602086016120e6565b61307981612110565b840191505092915050565b600060a0820190506130996000830188612739565b6130a66020830187612739565b6130b36040830186611fb8565b6130c06060830185611fb8565b81810360808301526130d2818461304b565b90509695505050505050565b6000815190506130ed8161200e565b92915050565b60006020828403121561310957613108611eda565b5b6000613117848285016130de565b91505092915050565b600060a0820190506131356000830188612739565b6131426020830187612739565b818103604083015261315481866125e3565b9050818103606083015261316881856125e3565b9050818103608083015261317c818461304b565b9050969550505050505056fea2646970667358221220760643cac1e8a8026866f2f990e79942491d654ba3ba2d0ced87603f029fcb5464736f6c63430008140033",
  "linkReferences": {},
  "deployedLinkReferences": {}
}