{
  "_format": "hh-sol-artifact-1",
  "contractName": "UploadIPFS",
  "sourceName": "contracts/IPFSUploader.sol",
  "abi": [
    {
      "inputs": [
        {
          "internalType": "string",
          "name": "ipfsHash",
          "type": "string"
        },
        {
          "internalType": "string",
          "name": "policyString",
          "type": "string"
        }
      ],
      "name": "upload",
      "outputs": [
        {
          "components": [
            {
              "internalType": "string",
              "name": "policyString",
              "type": "string"
            },
            {
              "internalType": "string",
              "name": "ipfsHash",
              "type": "string"
            }
          ],
          "internalType": "struct UploadIPFS.UploadObject",
          "name": "newUpload",
          "type": "tuple"
        }
      ],
      "stateMutability": "nonpayable",
      "type": "function"
    },
    {
      "inputs": [
        {
          "internalType": "address",
          "name": "",
          "type": "address"
        },
        {
          "internalType": "uint256",
          "name": "",
          "type": "uint256"
        }
      ],
      "name": "uploads",
      "outputs": [
        {
          "internalType": "string",
          "name": "policyString",
          "type": "string"
        },
        {
          "internalType": "string",
          "name": "ipfsHash",
          "type": "string"
        }
      ],
      "stateMutability": "view",
      "type": "function"
    }
  ],
  "bytecode": "0x608060405234801561001057600080fd5b506109dd806100206000396000f3fe608060405234801561001057600080fd5b50600436106100365760003560e01c8063202e49361461003b578063b7a344921461006b575b600080fd5b61005560048036038101906100509190610417565b61009c565b6040516100629190610552565b60405180910390f35b61008560048036038101906100809190610608565b610152565b604051610093929190610692565b60405180910390f35b6100a46102a3565b8181600001819052508281602001819052506000803373ffffffffffffffffffffffffffffffffffffffff1673ffffffffffffffffffffffffffffffffffffffff168152602001908152602001600020819080600181540180825580915050600190039060005260206000209060020201600090919091909150600082015181600001908161013391906108d5565b50602082015181600101908161014991906108d5565b50505092915050565b6000602052816000526040600020818154811061016e57600080fd5b906000526020600020906002020160009150915050806000018054610192906106f8565b80601f01602080910402602001604051908101604052809291908181526020018280546101be906106f8565b801561020b5780601f106101e05761010080835404028352916020019161020b565b820191906000526020600020905b8154815290600101906020018083116101ee57829003601f168201915b505050505090806001018054610220906106f8565b80601f016020809104026020016040519081016040528092919081815260200182805461024c906106f8565b80156102995780601f1061026e57610100808354040283529160200191610299565b820191906000526020600020905b81548152906001019060200180831161027c57829003601f168201915b5050505050905082565b604051806040016040528060608152602001606081525090565b6000604051905090565b600080fd5b600080fd5b600080fd5b600080fd5b6000601f19601f8301169050919050565b7f4e487b7100000000000000000000000000000000000000000000000000000000600052604160045260246000fd5b610324826102db565b810181811067ffffffffffffffff82111715610343576103426102ec565b5b80604052505050565b60006103566102bd565b9050610362828261031b565b919050565b600067ffffffffffffffff821115610382576103816102ec565b5b61038b826102db565b9050602081019050919050565b82818337600083830152505050565b60006103ba6103b584610367565b61034c565b9050828152602081018484840111156103d6576103d56102d6565b5b6103e1848285610398565b509392505050565b600082601f8301126103fe576103fd6102d1565b5b813561040e8482602086016103a7565b91505092915050565b6000806040838503121561042e5761042d6102c7565b5b600083013567ffffffffffffffff81111561044c5761044b6102cc565b5b610458858286016103e9565b925050602083013567ffffffffffffffff811115610479576104786102cc565b5b610485858286016103e9565b9150509250929050565b600081519050919050565b600082825260208201905092915050565b60005b838110156104c95780820151818401526020810190506104ae565b60008484015250505050565b60006104e08261048f565b6104ea818561049a565b93506104fa8185602086016104ab565b610503816102db565b840191505092915050565b6000604083016000830151848203600086015261052b82826104d5565b9150506020830151848203602086015261054582826104d5565b9150508091505092915050565b6000602082019050818103600083015261056c818461050e565b905092915050565b600073ffffffffffffffffffffffffffffffffffffffff82169050919050565b600061059f82610574565b9050919050565b6105af81610594565b81146105ba57600080fd5b50565b6000813590506105cc816105a6565b92915050565b6000819050919050565b6105e5816105d2565b81146105f057600080fd5b50565b600081359050610602816105dc565b92915050565b6000806040838503121561061f5761061e6102c7565b5b600061062d858286016105bd565b925050602061063e858286016105f3565b9150509250929050565b600082825260208201905092915050565b60006106648261048f565b61066e8185610648565b935061067e8185602086016104ab565b610687816102db565b840191505092915050565b600060408201905081810360008301526106ac8185610659565b905081810360208301526106c08184610659565b90509392505050565b7f4e487b7100000000000000000000000000000000000000000000000000000000600052602260045260246000fd5b6000600282049050600182168061071057607f821691505b602082108103610723576107226106c9565b5b50919050565b60008190508160005260206000209050919050565b60006020601f8301049050919050565b600082821b905092915050565b60006008830261078b7fffffffffffffffffffffffffffffffffffffffffffffffffffffffffffffffff8261074e565b610795868361074e565b95508019841693508086168417925050509392505050565b6000819050919050565b60006107d26107cd6107c8846105d2565b6107ad565b6105d2565b9050919050565b6000819050919050565b6107ec836107b7565b6108006107f8826107d9565b84845461075b565b825550505050565b600090565b610815610808565b6108208184846107e3565b505050565b5b818110156108445761083960008261080d565b600181019050610826565b5050565b601f8211156108895761085a81610729565b6108638461073e565b81016020851015610872578190505b61088661087e8561073e565b830182610825565b50505b505050565b600082821c905092915050565b60006108ac6000198460080261088e565b1980831691505092915050565b60006108c5838361089b565b9150826002028217905092915050565b6108de8261048f565b67ffffffffffffffff8111156108f7576108f66102ec565b5b61090182546106f8565b61090c828285610848565b600060209050601f83116001811461093f576000841561092d578287015190505b61093785826108b9565b86555061099f565b601f19841661094d86610729565b60005b8281101561097557848901518255600182019150602085019450602081019050610950565b86831015610992578489015161098e601f89168261089b565b8355505b6001600288020188555050505b50505050505056fea26469706673582212208d829030f7b254fc50ba83d219f9059a87f34ce2eec153c271ed7ab7df71d96464736f6c63430008140033",
  "linkReferences": {},
  "deployedLinkReferences": {}
}