{
  "_format": "hh-sol-artifact-1",
  "contractName": "UploadIPFS",
  "sourceName": "contracts/IPFSUploader.sol",
  "abi": [
    {
      "inputs": [
        {
          "internalType": "address",
          "name": "user",
          "type": "address"
        }
      ],
      "name": "getAllUploadsForAddress",
      "outputs": [
        {
          "internalType": "string[]",
          "name": "policyStrings",
          "type": "string[]"
        },
        {
          "internalType": "string[]",
          "name": "ipfsHashes",
          "type": "string[]"
        }
      ],
      "stateMutability": "view",
      "type": "function"
    },
    {
      "inputs": [
        {
          "internalType": "string",
          "name": "ipfsHash",
          "type": "string"
        },
        {
          "internalType": "string",
          "name": "policyString",
          "type": "string"
        }
      ],
      "name": "upload",
      "outputs": [
        {
          "components": [
            {
              "internalType": "string",
              "name": "policyString",
              "type": "string"
            },
            {
              "internalType": "string",
              "name": "ipfsHash",
              "type": "string"
            }
          ],
          "internalType": "struct UploadIPFS.Upload",
          "name": "newUpload",
          "type": "tuple"
        }
      ],
      "stateMutability": "nonpayable",
      "type": "function"
    },
    {
      "inputs": [
        {
          "internalType": "address",
          "name": "",
          "type": "address"
        },
        {
          "internalType": "uint256",
          "name": "",
          "type": "uint256"
        }
      ],
      "name": "uploads",
      "outputs": [
        {
          "internalType": "string",
          "name": "policyString",
          "type": "string"
        },
        {
          "internalType": "string",
          "name": "ipfsHash",
          "type": "string"
        }
      ],
      "stateMutability": "view",
      "type": "function"
    }
  ],
  "bytecode": "0x608060405234801561001057600080fd5b50610eac806100206000396000f3fe608060405234801561001057600080fd5b50600436106100415760003560e01c8063202e493614610046578063717b7df314610076578063b7a34492146100a7575b600080fd5b610060600480360381019061005b919061071a565b6100d8565b60405161006d9190610855565b60405180910390f35b610090600480360381019061008b91906108d5565b61018e565b60405161009e9291906109c4565b60405180910390f35b6100c160048036038101906100bc9190610a31565b610455565b6040516100cf929190610abb565b60405180910390f35b6100e06105a6565b8181600001819052508281602001819052506000803373ffffffffffffffffffffffffffffffffffffffff1673ffffffffffffffffffffffffffffffffffffffff168152602001908152602001600020819080600181540180825580915050600190039060005260206000209060020201600090919091909150600082015181600001908161016f9190610cfe565b5060208201518160010190816101859190610cfe565b50505092915050565b60608060008060008573ffffffffffffffffffffffffffffffffffffffff1673ffffffffffffffffffffffffffffffffffffffff1681526020019081526020016000208054905090508067ffffffffffffffff8111156101f1576101f06105ef565b5b60405190808252806020026020018201604052801561022457816020015b606081526020019060019003908161020f5790505b5092508067ffffffffffffffff811115610241576102406105ef565b5b60405190808252806020026020018201604052801561027457816020015b606081526020019060019003908161025f5790505b50915060005b8181101561044e5760008060008773ffffffffffffffffffffffffffffffffffffffff1673ffffffffffffffffffffffffffffffffffffffff16815260200190815260200160002082815481106102d4576102d3610dd0565b5b906000526020600020906002020190508060000180546102f390610b21565b80601f016020809104026020016040519081016040528092919081815260200182805461031f90610b21565b801561036c5780601f106103415761010080835404028352916020019161036c565b820191906000526020600020905b81548152906001019060200180831161034f57829003601f168201915b505050505085838151811061038457610383610dd0565b5b602002602001018190525080600101805461039e90610b21565b80601f01602080910402602001604051908101604052809291908181526020018280546103ca90610b21565b80156104175780601f106103ec57610100808354040283529160200191610417565b820191906000526020600020905b8154815290600101906020018083116103fa57829003601f168201915b505050505084838151811061042f5761042e610dd0565b5b602002602001018190525050808061044690610e2e565b91505061027a565b5050915091565b6000602052816000526040600020818154811061047157600080fd5b90600052602060002090600202016000915091505080600001805461049590610b21565b80601f01602080910402602001604051908101604052809291908181526020018280546104c190610b21565b801561050e5780601f106104e35761010080835404028352916020019161050e565b820191906000526020600020905b8154815290600101906020018083116104f157829003601f168201915b50505050509080600101805461052390610b21565b80601f016020809104026020016040519081016040528092919081815260200182805461054f90610b21565b801561059c5780601f106105715761010080835404028352916020019161059c565b820191906000526020600020905b81548152906001019060200180831161057f57829003601f168201915b5050505050905082565b604051806040016040528060608152602001606081525090565b6000604051905090565b600080fd5b600080fd5b600080fd5b600080fd5b6000601f19601f8301169050919050565b7f4e487b7100000000000000000000000000000000000000000000000000000000600052604160045260246000fd5b610627826105de565b810181811067ffffffffffffffff82111715610646576106456105ef565b5b80604052505050565b60006106596105c0565b9050610665828261061e565b919050565b600067ffffffffffffffff821115610685576106846105ef565b5b61068e826105de565b9050602081019050919050565b82818337600083830152505050565b60006106bd6106b88461066a565b61064f565b9050828152602081018484840111156106d9576106d86105d9565b5b6106e484828561069b565b509392505050565b600082601f830112610701576107006105d4565b5b81356107118482602086016106aa565b91505092915050565b60008060408385031215610731576107306105ca565b5b600083013567ffffffffffffffff81111561074f5761074e6105cf565b5b61075b858286016106ec565b925050602083013567ffffffffffffffff81111561077c5761077b6105cf565b5b610788858286016106ec565b9150509250929050565b600081519050919050565b600082825260208201905092915050565b60005b838110156107cc5780820151818401526020810190506107b1565b60008484015250505050565b60006107e382610792565b6107ed818561079d565b93506107fd8185602086016107ae565b610806816105de565b840191505092915050565b6000604083016000830151848203600086015261082e82826107d8565b9150506020830151848203602086015261084882826107d8565b9150508091505092915050565b6000602082019050818103600083015261086f8184610811565b905092915050565b600073ffffffffffffffffffffffffffffffffffffffff82169050919050565b60006108a282610877565b9050919050565b6108b281610897565b81146108bd57600080fd5b50565b6000813590506108cf816108a9565b92915050565b6000602082840312156108eb576108ea6105ca565b5b60006108f9848285016108c0565b91505092915050565b600081519050919050565b600082825260208201905092915050565b6000819050602082019050919050565b600061093a83836107d8565b905092915050565b6000602082019050919050565b600061095a82610902565b610964818561090d565b9350836020820285016109768561091e565b8060005b858110156109b25784840389528151610993858261092e565b945061099e83610942565b925060208a0199505060018101905061097a565b50829750879550505050505092915050565b600060408201905081810360008301526109de818561094f565b905081810360208301526109f2818461094f565b90509392505050565b6000819050919050565b610a0e816109fb565b8114610a1957600080fd5b50565b600081359050610a2b81610a05565b92915050565b60008060408385031215610a4857610a476105ca565b5b6000610a56858286016108c0565b9250506020610a6785828601610a1c565b9150509250929050565b600082825260208201905092915050565b6000610a8d82610792565b610a978185610a71565b9350610aa78185602086016107ae565b610ab0816105de565b840191505092915050565b60006040820190508181036000830152610ad58185610a82565b90508181036020830152610ae98184610a82565b90509392505050565b7f4e487b7100000000000000000000000000000000000000000000000000000000600052602260045260246000fd5b60006002820490506001821680610b3957607f821691505b602082108103610b4c57610b4b610af2565b5b50919050565b60008190508160005260206000209050919050565b60006020601f8301049050919050565b600082821b905092915050565b600060088302610bb47fffffffffffffffffffffffffffffffffffffffffffffffffffffffffffffffff82610b77565b610bbe8683610b77565b95508019841693508086168417925050509392505050565b6000819050919050565b6000610bfb610bf6610bf1846109fb565b610bd6565b6109fb565b9050919050565b6000819050919050565b610c1583610be0565b610c29610c2182610c02565b848454610b84565b825550505050565b600090565b610c3e610c31565b610c49818484610c0c565b505050565b5b81811015610c6d57610c62600082610c36565b600181019050610c4f565b5050565b601f821115610cb257610c8381610b52565b610c8c84610b67565b81016020851015610c9b578190505b610caf610ca785610b67565b830182610c4e565b50505b505050565b600082821c905092915050565b6000610cd560001984600802610cb7565b1980831691505092915050565b6000610cee8383610cc4565b9150826002028217905092915050565b610d0782610792565b67ffffffffffffffff811115610d2057610d1f6105ef565b5b610d2a8254610b21565b610d35828285610c71565b600060209050601f831160018114610d685760008415610d56578287015190505b610d608582610ce2565b865550610dc8565b601f198416610d7686610b52565b60005b82811015610d9e57848901518255600182019150602085019450602081019050610d79565b86831015610dbb5784890151610db7601f891682610cc4565b8355505b6001600288020188555050505b505050505050565b7f4e487b7100000000000000000000000000000000000000000000000000000000600052603260045260246000fd5b7f4e487b7100000000000000000000000000000000000000000000000000000000600052601160045260246000fd5b6000610e39826109fb565b91507fffffffffffffffffffffffffffffffffffffffffffffffffffffffffffffffff8203610e6b57610e6a610dff565b5b60018201905091905056fea26469706673582212207794e2a0b40affe4218516bd7adfb3331f6dfa3a73d7e42430237a1feb1d12d664736f6c63430008140033",
  "linkReferences": {},
  "deployedLinkReferences": {}
}